:020000040800F2
:1000000000000120551D0008511B0008571B000867
:100010005D1B0008631B0008691B0008000000004E
:100020000000000000000000000000006F1B00083E
:100030007D1B0008000000008B1B0008991B0008B6
:10004000A51D0008A51D0008A51D0008A51D000888
:10005000A51D0008A51D0008A51D0008A51D000878
:10006000A51D0008A51D0008A51D0008A51D000868
:10007000A51D0008A51D0008A51D0008A51D000858
:10008000A51D0008A51D0008A51D00080000000012
:10009000000000000000000000000000A51D000896
:1000A000A51D0008A51D0008A51D0008A51D000828
:1000B000A51D0008A51D0008A51D0008A51D000818
:1000C000A51D0008A51D0008A51D0008A51D000808
:1000D000A51D0008A51D0008A51D000800000000C2
:1000E000A51D0008A51D0008A51D000800000000B2
:1000F000000000000000000000000000A51D000836
:1001000000000000A51D0008A51D0008A51D000891
:1001100000000000000000000000000000000000DF
:10012000A51D0008A51D0008A51D0008A51D0008A7
:10013000A51D0008000000000000000000000000F5
:10014000000000000000000000000000A51D0008E5
:10015000A51D0008A51D0008A51D0008A51D000877
:10016000A51D0008A51D00080000000000000000FB
:10017000000000000000000000000000000000007F
:1001800000000000A51D00080000000000000000A5
:04019000A51D0008A1
:1001A00010B5054C237833B9044B13B10448AFF3B1
:1001B00000800123237010BDE40100200000000036
:1001C000088F000808B5034B1BB103490348AFF380
:1001D000008008BD00000000E8010020088F000832
:1001E000034613F8012B002AFBD1181A0138704777
:1001F00001F0FF01102A2BDB10F0070F08D010F8D8
:10020000013B013A8B422DD010F0070F42B3F6D1DB
:10021000F0B441EA012141EA014122F007047FF0F4
:1002200000070023F0E80256083C85EA010586EA4B
:10023000010685FA47F5A3FA87F586FA47F6A5FA87
:1002400087F68EB9EED1F0BC01F0FF0102F0070293
:1002500032B110F8013B013A83EA010313B1F8D13E
:100260000020704701387047002D06BF354603381F
:10027000073815F0010F07D1013015F4807F02BF58
:10028000013015F4C03F0130F0BC0138704700BFA9
:1002900081F0004102E000BF83F0004330B54FEA37
:1002A00041044FEA430594EA050F08BF90EA020FA4
:1002B0001FBF54EA000C55EA020C7FEA645C7FEA37
:1002C000655C00F0E2804FEA5454D4EB5555B8BF5A
:1002D0006D420CDD2C4480EA020281EA030382EACB
:1002E000000083EA010180EA020281EA0303362D5D
:1002F00088BF30BD11F0004F4FEA01314FF4801C30
:100300004CEA113102D0404261EB410113F0004F41
:100310004FEA03334CEA133302D0524263EB4303F8
:1003200094EA050F00F0A780A4F10104D5F1200E96
:100330000DDB02FA0EFC22FA05F2801841F10001F1
:1003400003FA0EF2801843FA05F359410EE0A5F1C5
:1003500020050EF1200E012A03FA0EFC28BF4CF0F6
:10036000020C43FA05F3C01851EBE37101F00045AC
:1003700007D54FF0000EDCF1000C7EEB00006EEBB9
:100380000101B1F5801F1BD3B1F5001F0CD3490843
:100390005FEA30004FEA3C0C04F101044FEA44529A
:1003A00012F5800F80F09A80BCF1004F08BF5FEA21
:1003B000500C50F1000041EB045141EA050130BD01
:1003C0005FEA4C0C404141EB0101013C28BFB1F513
:1003D000801FE9D291F0000F04BF01460020B1FA5E
:1003E00081F308BF2033A3F10B03B3F120020CDA31
:1003F0000C3208DD02F1140CC2F10C0201FA0CF00F
:1004000021FA02F10CE002F11402D8BFC2F1200C73
:1004100001FA02F120FA0CFCDCBF41EA0C01904029
:10042000E41AA2BF01EB0451294330BD6FEA040472
:100430001F3C1CDA0C340EDC04F11404C4F120025D
:1004400020FA04F001FA02F340EA030021FA04F36F
:1004500045EA030130BDC4F10C04C4F1200220FAC6
:1004600002F001FA04F340EA0300294630BD21FA04
:1004700004F0294630BD94F0000F83F4801306BFCA
:1004800081F480110134013D4EE77FEA645C18BFBE
:100490007FEA655C29D094EA050F08BF90EA020F55
:1004A00005D054EA000C04BF1946104630BD91EA4D
:1004B000030F1EBF0021002030BD5FEA545C05D150
:1004C0004000494128BF41F0004130BD14F580048F
:1004D0003CBF01F5801130BD01F0004545F0FE4103
:1004E00041F470014FF0000030BD7FEA645C1ABF38
:1004F000194610467FEA655C1CBF0B46024650EA6F
:10050000013406BF52EA033591EA030F41F400219A
:1005100030BD00BF90F0000F04BF0021704730B520
:100520004FF4806404F132044FF000054FF00001F5
:1005300050E700BF90F0000F04BF0021704730B5B6
:100540004FF4806404F1320410F0004548BF40428B
:100550004FF000013EE700BF42004FEAE2014FEAE0
:1005600031014FEA02701FBF12F07F4393F07F4FBB
:1005700081F06051704732F07F4208BF704793F0BE
:100580007F4F04BF41F40021704730B54FF46074D1
:1005900001F0004521F000411CE700BF50EA0102D4
:1005A00008BF704730B54FF000050AE050EA01027D
:1005B00008BF704730B511F0004502D5404261EBED
:1005C00041014FF4806404F132045FEA915C3FF42E
:1005D000D8AE4FF003025FEADC0C18BF03325FEACB
:1005E000DC0C18BF033202EBDC02C2F1200300FA7C
:1005F00003FC20FA02F001FA03FE40EA0E0021FAA1
:1006000002F11444BDE600BF70B54FF0FF0C4CF48E
:10061000E06C1CEA11541DBF1CEA135594EA0C0F40
:1006200095EA0C0F00F0DEF82C4481EA030621EA7B
:100630004C5123EA4C5350EA013518BF52EA0335B6
:1006400041F4801143F4801338D0A0FB02CE4FF068
:100650000005E1FB02E506F00042E0FB03E54FF098
:100660000006E1FB03569CF0000F18BF4EF0010E90
:10067000A4F1FF04B6F5007F64F5407404D25FEA8C
:100680004E0E6D4146EB060642EAC62141EA55513F
:100690004FEAC52040EA5E504FEACE2EB4F1FD0C81
:1006A00088BFBCF5E06F1ED8BEF1004F08BF5FEAFF
:1006B000500E50F1000041EB045170BD06F00046B1
:1006C00046EA010140EA020081EA0301B4EB5C045E
:1006D000C2BFD4EB0C0541EA045170BD41F4801156
:1006E0004FF0000E013C00F3AB8014F1360FDEBF7B
:1006F000002001F0004170BDC4F10004203C35DA57
:100700000C341BDC04F11404C4F1200500FA05F3D9
:1007100020FA04F001FA05F240EA020001F000427A
:1007200021F0004110EBD37021FA04F642EB0601F0
:100730005EEA430E08BF20EAD37070BDC4F10C041A
:10074000C4F1200500FA04F320FA05F001FA04F2DE
:1007500040EA020001F0004110EBD37041F10001CA
:100760005EEA430E08BF20EAD37070BDC4F12005D5
:1007700000FA05F24EEA020E20FA04F301FA05F23D
:1007800043EA020321FA04F001F0004121FA04F2E5
:1007900020EA020000EBD3705EEA430E08BF20EAB5
:1007A000D37070BD94F0000F0FD101F000464000EF
:1007B00041EB010111F4801F08BF013CF7D041EA71
:1007C000060195F0000F18BF704703F00046520075
:1007D00043EB030313F4801F08BF013DF7D043EA46
:1007E0000603704794EA0C0F0CEA135518BF95EAFC
:1007F0000C0F0CD050EA410618BF52EA4306D1D183
:1008000081EA030101F000414FF0000070BD50EAA1
:10081000410606BF1046194652EA430619D094EA2B
:100820000C0F02D150EA013613D195EA0C0F05D115
:1008300052EA03361CBF104619460AD181EA030169
:1008400001F0004141F0FE4141F470014FF0000021
:1008500070BD41F0FE4141F4780170BD70B54FF0BC
:10086000FF0C4CF4E06C1CEA11541DBF1CEA13553C
:1008700094EA0C0F95EA0C0F00F0A7F8A4EB05041E
:1008800081EA030E52EA03354FEA013100F0888015
:100890004FEA03334FF0805545EA131343EA1263DE
:1008A0004FEA022245EA111545EA10654FEA002693
:1008B0000EF000419D4208BF964244F1FD0404F54C
:1008C000407402D25B084FEA3202B61A65EB0305A8
:1008D0005B084FEA32024FF480104FF4002CB6EB65
:1008E000020E75EB030E22BFB61A754640EA0C00E5
:1008F0005B084FEA3202B6EB020E75EB030E22BF25
:10090000B61A754640EA5C005B084FEA3202B6EB65
:10091000020E75EB030E22BFB61A754640EA9C0024
:100920005B084FEA3202B6EB020E75EB030E22BFF4
:10093000B61A754640EADC0055EA060E18D04FEAB2
:10094000051545EA16754FEA06164FEAC30343EA52
:1009500052734FEAC2025FEA1C1CC0D111F4801F1F
:100960000BD141EA00014FF000004FF0004CB6E718
:1009700011F4801F04BF01430020B4F1FD0C88BFB7
:10098000BCF5E06F3FF6AFAEB5EB030C04BFB6EBC2
:10099000020C5FEA500C50F1000041EB045170BDB5
:1009A0000EF0004E4EEA113114EB5C04C2BFD4EBE2
:1009B0000C0541EA045170BD41F480114FF0000E66
:1009C000013C90E645EA060E8DE60CEA135594EAE2
:1009D0000C0F08BF95EA0C0F3FF43BAF94EA0C0FE5
:1009E0000AD150EA01347FF434AF95EA0C0F7FF45A
:1009F00025AF104619462CE795EA0C0F06D152EAAE
:100A000003353FF4FDAE1046194622E750EA410691
:100A100018BF52EA43067FF4C5AE50EA41047FF4A2
:100A20000DAF52EA43057FF4EBAE12E74FF0FF3C07
:100A300006E000BF4FF0010C02E000BF4FF0010CD8
:100A40004DF804CD4FEA410C7FEA6C5C4FEA430C51
:100A500018BF7FEA6C5C1BD001B050EA410C0CBFA0
:100A600052EA430C91EA030F02BF90EA020F002002
:100A7000704710F1000F91EA030F58BF994208BF69
:100A800090422CBFD8176FEAE37040F00100704726
:100A90004FEA410C7FEA6C5C02D150EA013C07D17D
:100AA0004FEA430C7FEA6C5CD6D152EA033CD3D0C8
:100AB0005DF8040B704700BF8446104662468C46C2
:100AC0001946634600E000BF01B5FFF7B7FF0028F5
:100AD00048BF10F1000F01BD4DF808EDFFF7F4FF1E
:100AE0000CBF012000205DF808FB00BF4DF808EDA9
:100AF000FFF7EAFF34BF012000205DF808FB00BFCC
:100B00004DF808EDFFF7E0FF94BF012000205DF8ED
:100B100008FB00BF4DF808EDFFF7CEFF94BF0120A2
:100B200000205DF808FB00BF4DF808EDFFF7C4FF9B
:100B300034BF012000205DF808FB00BF4FEA410CE4
:100B40007FEA6C5C02D150EA013C0AD14FEA430CC7
:100B50007FEA6C5C02D152EA033C02D14FF0000004
:100B600070474FF0010070474FEA410212F5001242
:100B700015D211D56FF47873B3EB625212D94FEAE4
:100B8000C12343F0004343EA505311F0004F23FACE
:100B900002F018BF404270474FF00000704750EA23
:100BA000013005D111F0004008BF6FF000407047E0
:100BB0004FF00000704700BF4A0011D212F500123A
:100BC00011D20DD56FF47873B3EB62520ED44FEAA5
:100BD000C12343F0004343EA505323FA02F0704725
:100BE0004FF00000704750EA013002D14FF0FF3063
:100BF00070474FF0000070474FEA4102B2F1E04306
:100C000024BFB3F5001CDCF1FE5C0DD901F0004CF3
:100C10004FEAC0024CEA5070B2F1004F40EB830043
:100C200008BF20F00100704711F0804F21D113F16F
:100C30003872BCBF01F00040704741F480114FEAA8
:100C40005252C2F11802C2F1200C10FA0CF320FA31
:100C500002F018BF40F001004FEAC1234FEAD3234E
:100C600003FA0CFC40EA0C0023FA02F34FEA4303B8
:100C7000CCE77FEA625307D150EA01331EBF4FF041
:100C8000FE4040F44000704701F0004040F0FE405C
:100C900040F40000704700BF53B94AB9002908BFAB
:100CA00000281CBF4FF0FF314FF0FF3000F0AAB911
:100CB000ADF1080C6DE904CE00F03CF8DDF804E07D
:100CC000DDE9022304B0704738B500220023044652
:100CD0000D46FFF70BFF28B920462946BDE83840EE
:100CE00000F00AB8204605F1004100F005F8404246
:100CF00061EB410138BD00BFD0B50C4B0022064668
:100D00000F46FFF781FCFFF757FF0446FFF702FC91
:100D1000074B0022FFF778FC02460B463046394667
:100D2000FFF7BAFAFFF748FF2146D0BD0000F03DBB
:100D30000000F0412DE9F047089D04468E46002B47
:100D40004DD18A42944669D9B2FA82F252B101FA7F
:100D500002F3C2F1200120FA01F10CFA02FC41EA8F
:100D6000030E94404FEA1C48210CBEFBF8F61FFA14
:100D70008CF708FB16E341EA034306FB07F19942AF
:100D80000AD91CEB030306F1FF3080F01F81994262
:100D900040F21C81023E63445B1AA4B2B3FBF8F03C
:100DA00008FB103344EA034400FB07F7A7420AD9C3
:100DB0001CEB040400F1FF3380F00A81A74240F2EB
:100DC00007816444023840EA0640E41B00261DB156
:100DD000D4400023C5E900433146BDE8F0878B428B
:100DE00009D9002D00F0EF800026C5E9000130464A
:100DF0003146BDE8F087B3FA83F6002E4AD18B4224
:100E000002D3824200F2F980841A61EB03030120CD
:100E10009E46002DE0D0C5E9004EDDE702B9FFDEB9
:100E2000B2FA82F2002A40F09280A1EB0C014FEA64
:100E30001C471FFA8CFE0126200CB1FBF7F307FBC1
:100E4000131140EA01410EFB03F0884208D91CEB64
:100E5000010103F1FF3802D2884200F2CB80434601
:100E6000091AA4B2B1FBF7F007FB101144EA0144E0
:100E70000EFB00FEA64508D91CEB040400F1FF316F
:100E800002D2A64500F2BB800846A4EB0E0440EA5D
:100E900003409CE7C6F12007B34022FA07FC4CEA66
:100EA000030C20FA07F401FA06F31C43F9404FEA59
:100EB0001C4900FA06F3B1FBF9F8200C1FFA8CFE6E
:100EC00009FB181140EA014108FB0EF0884202FAC2
:100ED00006F20BD91CEB010108F1FF3A80F0888083
:100EE000884240F28580A8F102086144091AA4B240
:100EF000B1FBF9F009FB101144EA014100FB0EFEC1
:100F00008E4508D91CEB010100F1FF346CD28E45EF
:100F10006AD90238614440EA0840A0FB0294A1EB80
:100F20000E01A142C846A64656D353D05DB1B3EBDD
:100F3000080261EB0E0101FA07F722FA06F3F1400D
:100F40001F43C5E9007100263146BDE8F087C2F1B4
:100F50002003D8400CFA02FC21FA03F3914001432C
:100F60004FEA1C471FFA8CFEB3FBF7F007FB103665
:100F70000B0C43EA064300FB0EF69E4204FA02F411
:100F800008D91CEB030300F1FF382FD29E422DD964
:100F9000023863449B1B89B2B3FBF7F607FB163399
:100FA00041EA034106FB0EF38B4208D91CEB010119
:100FB00006F1FF3816D28B4214D9023E6144C91A99
:100FC00046EA004638E72E46284605E70646E3E6A9
:100FD0001846F8E64B45A9D2B9EB020864EB0C0EB3
:100FE0000138A3E74646EAE7204694E74046D1E7C2
:100FF000D0467BE7023B614432E7304609E7644470
:10100000023842E7704700BF80B590B000AF354A64
:1010100007F1380392E8030083E80300324A07F13E
:10102000300392E8030083E80300304A07F1280305
:1010300092E8030083E803002D4A07F1200392E8B9
:10104000030083E803002B4A07F1180392E803002A
:1010500083E80300284A07F1100392E8030083E8BD
:101060000300264A07F1080392E8030083E803001F
:10107000234A3B4692E8030083E8030007F1380364
:101080000121184600F03AFA07F130030221184610
:1010900000F034FA07F128030321184600F02EFA75
:1010A00007F120030421184600F028FA07F118037D
:1010B0000521184600F022FA07F110030621184610
:1010C00000F01CFA07F108030721184600F016FA91
:1010D0003B460821184600F011FA00BF4037BD46D4
:1010E00080BD00BF208F0008288F0008308F0008C7
:1010F000388F0008408F0008488F0008508F000884
:10110000588F000880B584B002AF78601D4B1B7803
:10111000002B07D07B681B7843F00803DAB27B68AA
:101120001A7006E07B681B7823F00803DAB27B684C
:101130001A707B681B7843F00403DAB27B681A707C
:101140000A23009301237A684E210F4801F0D2FC54
:10115000052000F09BFE7B681B7823F00403DAB2C5
:101160007B681A700A23009301237A684E2106488F
:1011700001F0C0FC052000F089FE00BF0837BD4625
:1011800080BD00BF000000204C02002080B584B06C
:1011900002AF0346FB71FA1D0A23009301234E217F
:1011A000034801F0A7FC00BF0837BD4680BD00BF63
:1011B0004C02002080B582B000AF0346FB71FB7982
:1011C0001B01FB71114B1B7843F00403DAB20F4B88
:1011D0001A700E4B1B781846FFF7D8FF0B4B1A7886
:1011E000FB791343DBB21846FFF7D0FF074B1B78A0
:1011F00023F00403DAB2054B1A70044B1B7818462F
:10120000FFF7C4FF00BF0837BD4680BD00020020C5
:1012100080B584B000AF03460A46FB711346BB712C
:10122000BB79002B0CD1154B1B7823F00103DAB2EC
:10123000124B1A70114B1B781846FFF7A7FF0BE0F3
:101240000E4B1B7843F00103DAB20C4B1A700B4BB8
:101250001B781846FFF79AFF0023FB73FB791B09E5
:10126000FB73FB7B1846FFF7A5FFFB791846FFF7DA
:10127000A1FF00BF1037BD4680BD00BF00020020A7
:1012800080B584B002AF78601A4B1B78002B07D072
:101290007B681B7843F00803DAB27B681A7006E0BB
:1012A0007B681B7823F00803DAB27B681A707B68CE
:1012B0001B7843F00403DAB27B681A700A230093A8
:1012C00001237A684E210C4801F014FC7B681B78DE
:1012D00023F00403DAB27B681A700A230093012317
:1012E0007A684E21044801F005FC00BF0837BD466E
:1012F00080BD00BF000000204C02002080B582B0FD
:1013000000AF3023FB710F2000F0C0FDFB1D18461D
:10131000FFF7F8FE052000F0B9FDFB1D1846FFF7AA
:10132000F1FE012000F0B2FDFB1D1846FFF7EAFEBA
:101330002023FB71FB1D1846FFF7E4FE2023FB7101
:10134000FB1D1846FFF7DEFE8023FB71FB1D1846D0
:10135000FFF7D8FE0023FB71FB1D1846FFF7D2FEF6
:101360008023FB71FB1D1846FFF7CCFE0023FB71A9
:10137000FB1D1846FFF7C6FE1023FB71FB1D184628
:10138000FFF7C0FE0023FB71FB1D1846FFF7BAFEF6
:101390003023FB71FB1D1846FFF7B4FE0023FB71E1
:1013A000FB1D1846FFF7AEFEC023FB71FB1D184660
:1013B000FFF7A8FE00BF0837BD4680BD80B584B0EA
:1013C00000AF0346FB7197F9073023F00F035BB2C0
:1013D00043F009035BB2DBB2FB7307F10F0318465E
:1013E000FFF74EFFFB791B015BB243F009035BB2D1
:1013F000DBB2FB7307F10F031846FFF741FF00BF95
:101400001037BD4680BD80B584B000AF7860002342
:10141000FB6009E0FB687A6813441B781846FFF705
:10142000CDFFFB680133FB607868FEF7D9FE02460A
:10143000FB689A42EED800BF00BF1037BD4680BDA2
:1014400080B584B000AF03460A46FB711346BB71FA
:10145000BB79032B01D90323BB71FB79272B01D95E
:101460002723FB71BB79002B01D1FB79FB73BB797F
:10147000012B02D1FB794033FB73BB79022B02D1E4
:10148000FB791433FB73BB79032B02D1FB79543303
:10149000FB7397F90F3003F070035BB263F07F03C7
:1014A0005BB2DBB2BB7307F10E031846FFF7E8FE31
:1014B000FB7B1B01DBB2BB7307F10E031846FFF782
:1014C000DFFE00BF1037BD4680BD000080B483B092
:1014D00000AF0346FB71FB79002B03D0064B0122C2
:1014E0001A7002E0044B00221A7000BF0C37BD4690
:1014F0005DF8047B704700BF0000002080B584B019
:1015000000AF78600B46FB70FB78DB00DBB25BB2B0
:1015100043F040035BB2DBB200211846FFF778FED0
:101520000023FB730AE0FB7B7A6813441B780121DC
:101530001846FFF76DFEFB7B0133FB73FB7B072B2C
:10154000F1D900BF00BF1037BD4680BD80B582B065
:1015500000AF0023FB71FB1D1846FFF7D3FD1023DE
:10156000FB71FB1D1846FFF7CDFD00BF0837BD46D8
:1015700080BD000080B500AF00F016FC00F032F82E
:1015800000F090F900F0EAF800F096F800F014F995
:101590000021114802F0A2FA642000F077FCFFF766
:1015A000ADFEFFF731FD0120FFF790FF0021002085
:1015B000FFF746FF0948FFF726FF01210020FFF74C
:1015C0003FFF0748FFF71FFF4FF4FA7000F05EFC83
:1015D000FFF7BCFFFEE700BFA00200208C8F0008D1
:1015E0009C8F000880B594B000AF07F12003302233
:1015F0000021184603F010F807F10C0300221A60CE
:101600005A609A60DA601A610023BB60284B1B6C39
:10161000274A43F080531364254B1B6C03F080531F
:10162000BB60BB6800237B60224B1B6823F44043F4
:10163000204A43F4004313601E4B1B6803F44043ED
:101640007B607B6801233B624FF480337B62022323
:10165000BB634FF48003FB6319233B64A8237B64C3
:101660000223BB640423FB6407F12003184601F046
:1016700049FD0346002B01D000F058F90F23FB6011
:1016800002233B6100237B614FF48053BB61002345
:10169000FB6107F10C030221184601F0ABFF034682
:1016A000002B01D000F042F900BF5037BD4680BD8D
:1016B000003802400070004080B584B000AF3B4667
:1016C00000221A605A609A60DA60214B214A1A603F
:1016D0001F4B4FF480325A601D4B00229A601C4B06
:1016E00000221A611A4B00221A76194B002283F845
:1016F0002020174B0022DA62154B174A9A62144BCE
:101700000022DA60124B0122DA61114B002283F8C9
:1017100030200F4B01225A610D4800F0DBFB0346DD
:10172000002B01D000F002F905233B6001237B6010
:101730000023BB603B461946054800F00FFC0346FA
:10174000002B01D000F0F2F800BF1037BD4680BD7D
:1017500004020020002001400100000F80B500AF0E
:10176000124B134A1A60114B124A5A600F4B002257
:101770009A600E4B0022DA600C4B4FF480421A61E3
:101780000A4B00225A61094B00229A61074B002242
:10179000DA61064B00221A62044801F067F803463A
:1017A000002B01D000F0C2F800BF80BD4C02002029
:1017B00000540040801A060080B58EB000AF07F1DB
:1017C000280300221A605A609A60DA6007F1200349
:1017D00000221A605A603B1D00221A605A609A600B
:1017E000DA601A615A619A612D4B4FF080421A609B
:1017F0002B4B3F225A602A4B00229A60284B40F222
:10180000F312DA60264B00221A61254B00229A61FE
:10181000234802F0BBF80346002B01D000F086F805
:101820004FF48053BB6207F1280319461C4802F0AD
:10183000C7FA0346002B01D000F078F8184802F0F0
:10184000F4F80346002B01D000F070F800233B624F
:1018500000237B6207F120031946114802F044FE81
:101860000346002B01D000F061F860237B60002369
:10187000BB600023FB6000237B613B1D00221946F7
:10188000074802F0DBF90346002B01D000F04EF8C8
:10189000034800F025F900BF3837BD4680BD00BFC2
:1018A000A002002080B485B000AF0023FB601E4B77
:1018B0001B6B1D4A43F0040313631B4B1B6B03F0AC
:1018C0000403FB60FB680023BB60174B1B6B164ACD
:1018D00043F080031363144B1B6B03F08003BB6066
:1018E000BB6800237B60104B1B6B0F4A43F0010366
:1018F00013630D4B1B6B03F001037B607B680023BC
:101900003B60094B1B6B084A43F002031363064B11
:101910001B6B03F002033B603B6800BF1437BD46FE
:101920005DF8047B704700BF0038024080B400AF10
:1019300072B600BFFEE7000080B483B000AF0023A2
:101940007B60104B5B6C0F4A43F4804353640D4B38
:101950005B6C03F480437B607B6800233B60094B36
:101960001B6C084A43F080531364064B1B6C03F056
:1019700080533B603B6800BF0C37BD465DF8047B7D
:10198000704700BF0038024080B58AB000AF786071
:1019900007F1140300221A605A609A60DA601A6133
:1019A0007B681B68174A934227D100233B61164B83
:1019B0005B6C154A43F480735364134B5B6C03F404
:1019C00080733B613B690023FB600F4B1B6B0E4A2E
:1019D00043F0010313630C4B1B6B03F00103FB602B
:1019E000FB6820237B610323BB610023FB6107F1BC
:1019F00014031946054800F0B5FD00BF2837BD4661
:101A000080BD00BF002001400038024000000240BD
:101A100080B58AB000AF786007F1140300221A6025
:101A20005A609A60DA601A617B681B68194A9342AF
:101A30002BD100233B61184B1B6B174A43F0020369
:101A40001363154B1B6B03F002033B613B69C0231F
:101A50007B611223BB610023FB6103233B620423F0
:101A60007B6207F1140319460C4800F07BFD00234C
:101A7000FB60094B1B6C084A43F400131364064BCC
:101A80001B6C03F40013FB60FB6800BF2837BD46E6
:101A900080BD00BF005400400038024000040240F6
:101AA00080B485B000AF78607B681B68B3F1804F6D
:101AB0000DD10023FB60094B1B6C084A43F0010366
:101AC0001364064B1B6C03F00103FB60FB6800BF53
:101AD0001437BD465DF8047B704700BF00380240F4
:101AE00080B588B000AF786007F10C0300221A605F
:101AF0005A609A60DA601A617B681B68B3F1804FA4
:101B00001DD10023BB60104B1B6B0F4A43F0010338
:101B100013630D4B1B6B03F00103BB60BB68012318
:101B2000FB6002233B6100237B610023BB61012337
:101B3000FB6107F10C031946044800F013FD00BFD8
:101B40002037BD4680BD00BF003802400000024083
:101B500080B400AFFEE780B400AFFEE780B400AF12
:101B6000FEE780B400AFFEE780B400AFFEE780B4CC
:101B700000AF00BFBD465DF8047B704780B400AF86
:101B800000BFBD465DF8047B704780B400AF00BF66
:101B9000BD465DF8047B704780B500AF00F056F994
:101BA00000BF80BD80B400AF01231846BD465DF87C
:101BB000047B704780B582B000AF7860396002F076
:101BC00001FD034616221A604FF0FF33184608370E
:101BD000BD4680BD80B582B000AF78604FF0FF3168
:101BE0007868FFF7E7FFFEE780B586B000AFF860E2
:101BF000B9607A6000237B610AE0AFF300800146A0
:101C0000BB685A1CBA60CAB21A707B6901337B6127
:101C10007A697B689A42F0DB7B6818461837BD46C4
:101C200080BD80B586B000AFF860B9607A600023EF
:101C30007B6109E0BB685A1CBA601B781846AFF399
:101C400000807B6901337B617A697B689A42F1DBB2
:101C50007B6818461837BD4680BD80B483B000AF9E
:101C600078604FF0FF3318460C37BD465DF8047BB3
:101C7000704780B483B000AF786039603B684FF440
:101C800000525A60002318460C37BD465DF8047BAD
:101C9000704780B483B000AF7860012318460C37DA
:101CA000BD465DF8047B704780B485B000AFF86036
:101CB000B9607A60002318461437BD465DF8047B8E
:101CC0007047000080B586B000AF7860144A154BAD
:101CD000D31A7B617B693B61134B1B68002B02D1DC
:101CE000114B124A1A60104B1A687B6813443A6908
:101CF0009A4207D202F066FC03460C221A604FF0AB
:101D0000FF3309E0084B1B68FB60074B1A687B68D0
:101D10001344054A1360FB6818461837BD4680BD5A
:101D20000000012000040000E80200200003002061
:101D300080B400AF064BD3F88830054A43F47003F3
:101D4000C2F8883000BFBD465DF8047B704700BF15
:101D500000ED00E0DFF834D00D480E490E4A0023B4
:101D600002E0D458C4500433C4188C42F9D30B4A4F
:101D70000B4C002301E013600432A242FBD3FFF7B7
:101D8000D7FF02F025FCFFF7F5FB704700000120AC
:101D900000000020E40100207C940008E401002001
:101DA00000030020FEE7000080B500AF0E4B1B686B
:101DB0000D4A43F4007313600B4B1B680A4A43F44B
:101DC00080631360084B1B68074A43F480731360F9
:101DD000032000F093FB0F2000F008F8FFF7ACFDA4
:101DE0000023184680BD00BF003C024080B582B091
:101DF00000AF7860124B1A68124B1B7819464FF4EB
:101E00007A73B3FBF1F3B2FBF3F3184600F09DFBDA
:101E10000346002B01D001230EE07B680F2B0AD86C
:101E2000002279684FF0FF3000F073FB064A7B68B0
:101E30001360002300E0012318460837BD4680BD2B
:101E4000040000200C0000200800002080B400AF37
:101E5000064B1B781A46064B1B681344044A136052
:101E600000BFBD465DF8047B704700BF0C0000203A
:101E7000EC02002080B400AF034B1B681846BD463F
:101E80005DF8047B704700BFEC02002080B584B091
:101E900000AF7860FFF7EEFFB8607B68FB60FB681F
:101EA000B3F1FF3F05D00A4B1B781A46FB68134479
:101EB000FB6000BFFFF7DEFF0246BB68D31AFA687B
:101EC0009A42F7D800BF00BF1037BD4680BD00BFA3
:101ED0000C00002080B584B000AF78600023FB7355
:101EE0007B68002B01D1012333E07B681B6C002B46
:101EF00009D17868FFF748FD7B6800225A647B6847
:101F0000002283F83C207B681B6C03F01003002B3D
:101F100018D17B681B6C23F4885323F0020343F031
:101F200002027B681A64786800F03AF97B68002244
:101F30005A647B681B6C23F0030343F001027B6847
:101F40001A6401E00123FB737B68002283F83C20C4
:101F5000FB7B18461037BD4680BD000080B485B0BD
:101F600000AF786039600023BB607B6893F83C3039
:101F7000012B01D1022305E17B68012283F83C207B
:101F80003B681B68092B25D97B681B68D9683B68AF
:101F90001B689BB21A4613465B0013441E3B072284
:101FA00002FA03F3DA437B681B680A40DA607B6855
:101FB0001B68D9683B689A683B681B689BB21846E7
:101FC00003465B0003441E3B9A407B681B680A4340
:101FD000DA6022E07B681B6819693B681B689BB26A
:101FE0001A4613465B001344072202FA03F3DA434E
:101FF0007B681B680A401A617B681B6819693B682B
:102000009A683B681B689BB2184603465B00034412
:102010009A407B681B680A431A613B685B68062B21
:1020200024D87B681B68596B3B685A6813469B0031
:102030001344053B1F2202FA03F3DA437B681B6853
:102040000A405A637B681B68596B3B681B689BB2EC
:1020500018463B685A6813469B001344053B00FA38
:1020600003F27B681B680A435A634CE03B685B6879
:102070000C2B24D87B681B68196B3B685A68134685
:102080009B001344233B1F2202FA03F3DA437B68CD
:102090001B680A401A637B681B68196B3B681B68E6
:1020A0009BB218463B685A6813469B001344233B77
:1020B00000FA03F27B681B680A431A6323E07B681B
:1020C0001B68D96A3B685A6813469B001344413B1E
:1020D0001F2202FA03F3DA437B681B680A40DA62C4
:1020E0007B681B68D96A3B681B689BB218463B68D3
:1020F0005A6813469B001344413B00FA03F27B6885
:102100001B680A43DA62224BFB607B681B68214A2A
:10211000934209D13B681B68122B05D1FB685B68B1
:1021200043F48002FB685A607B681B68194A93423B
:1021300023D13B681B68102B03D03B681B68112B15
:102140001BD1FB685B6843F40002FB685A603B6884
:102150001B68102B11D1104B1B68104AA2FB0323E4
:102160009A0C13469B0013445B00BB6002E0BB6803
:10217000013BBB60BB68002BF9D17B68002283F870
:102180003C20002318461437BD465DF8047B704799
:1021900000230140002001400400002083DE1B4397
:1021A00080B485B000AF7860794BFB60FB685B68FA
:1021B00023F44032FB685A60FB685A687B685B68AE
:1021C0001A43FB685A607B681B685A687B681B6807
:1021D00022F480725A607B681B6859687B681B69AF
:1021E0001A027B681B680A435A607B681B685A683E
:1021F0007B681B6822F040725A607B681B685968D4
:102200007B689A687B681B680A435A607B681B6816
:102210009A687B681B6822F400629A607B681B687E
:1022200099687B68DA687B681B680A439A607B68F8
:102230009B6A584A934222D07B681B689A687B68E5
:102240001B6822F070629A607B681B6899687B68E3
:102250009A6A7B681B680A439A607B681B689A6865
:102260007B681B6822F040529A607B681B68996803
:102270007B68DA6A7B681B680A439A600FE07B68B8
:102280001B689A687B681B6822F070629A607B68A2
:102290001B689A687B681B6822F040529A607B68D2
:1022A0001B689A687B681B6822F002029A607B6850
:1022B0001B6899687B681B7E5A007B681B680A4311
:1022C0009A607B6893F82030002B1BD07B681B68DA
:1022D0005A687B681B6842F400625A607B681B681E
:1022E0005A687B681B6822F460425A607B681B68EE
:1022F00059687B685B6A013B5A037B681B680A4329
:102300005A6007E07B681B685A687B681B6822F488
:1023100000625A607B681B68DA6A7B681B6822F47B
:102320007002DA627B681B68D96A7B68DB69013BF3
:102330001A057B681B680A43DA627B681B689A6827
:102340007B681B6822F400729A607B681B6899683E
:102350007B6893F830305A027B681B680A439A60A6
:102360007B681B689A687B681B6822F480629A60AD
:102370007B681B6899687B685B699A027B681B684D
:102380000A439A6000BF1437BD465DF8047B70476E
:10239000002301400100000F80B485B000AF7860D9
:1023A0007B6803F00703FB600C4BDB68BB60BA681B
:1023B0004FF6FF031340BB60FB681A02BB68134370
:1023C00043F0BF6343F40033BB60044ABB68D3608F
:1023D00000BF1437BD465DF8047B704700ED00E098
:1023E00080B400AF044BDB681B0A03F007031846F8
:1023F000BD465DF8047B704700ED00E080B483B01B
:1024000000AF03463960FB7197F90730002B0ADBF8
:102410003B68DAB20C4997F907301201D2B20B448B
:1024200083F800230AE03B68DAB20849FB7903F03D
:102430000F03043B1201D2B20B441A7600BF0C37D3
:10244000BD465DF8047B704700E100E000ED00E070
:1024500080B489B000AFF860B9607A60FB6803F0BF
:102460000703FB61FB69C3F10703042B28BF0423A7
:10247000BB61FB690433062B02D9FB69033B00E017
:1024800000237B614FF0FF32BB6902FA03F3DA43AA
:10249000BB681A407B699A404FF0FF317B6901FAB3
:1024A00003F3D9437B680B40134318462437BD46DA
:1024B0005DF8047B7047000080B582B000AF7860A3
:1024C0007B68013BB3F1807F01D301230FE00A4A0F
:1024D0007B68013B53600F214FF0FF30FFF78EFF09
:1024E000054B00229A60044B07221A60002318460D
:1024F0000837BD4680BD00BF10E000E080B582B067
:1025000000AF78607868FFF747FF00BF0837BD4627
:1025100080BD80B586B000AF0346B9607A60FB73BA
:1025200000237B61FFF75CFF78617A68B96878699E
:10253000FFF78EFF024697F90F3011461846FFF756
:102540005DFF00BF1837BD4680BD80B582B000AFCB
:1025500078607868FFF7B0FF034618460837BD4635
:1025600080BD000080B489B000AF7860396000237E
:102570007B6100233B610023BB610023FB6159E1C8
:102580000122FB6902FA03F37B613B681B687A69ED
:1025900013403B613A697B699A4240F048813B684D
:1025A0005B6803F00303012B05D03B685B6803F015
:1025B0000303022B30D17B689B68BB61FB695B0026
:1025C000032202FA03F3DB43BA691340BB613B68A1
:1025D000DA68FB695B0002FA03F3BA691343BB6173
:1025E0007B68BA699A607B685B68BB610122FB69A2
:1025F00002FA03F3DB43BA691340BB613B685B68D3
:102600001B0903F00102FB6902FA03F3BA691343E1
:10261000BB617B68BA695A603B685B6803F003037F
:10262000032B17D07B68DB68BB61FB695B0003226F
:1026300002FA03F3DB43BA691340BB613B689A6853
:10264000FB695B0002FA03F3BA691343BB617B6861
:10265000BA69DA603B685B6803F00303022B23D19D
:10266000FB69DA087B68083253F82230BB61FB69EA
:1026700003F007039B000F2202FA03F3DB43BA695E
:102680001340BB613B681A69FB6903F007039B00B9
:1026900002FA03F3BA691343BB61FB69DA087B688A
:1026A0000832B96943F822107B681B68BB61FB697B
:1026B0005B00032202FA03F3DB43BA691340BB61F8
:1026C0003B685B6803F00302FB695B0002FA03F3FB
:1026D000BA691343BB617B68BA691A603B685B687F
:1026E00003F44033002B00F0A2800023FB60574B23
:1026F0005B6C564A43F480435364544B5B6C03F465
:102700008043FB60FB68524AFB699B08023352F826
:102710002330BB61FB6903F003039B000F2202FA25
:1027200003F3DB43BA691340BB617B68494A9342B8
:1027300019D07B68484A934213D07B68474A93423A
:102740000DD07B68464A934207D07B68454A934246
:1027500001D1042308E0072306E0032304E0022359
:1027600002E0012300E00023FA6902F00302920074
:102770009340BA691343BB613549FB699B08023337
:10278000BA6941F82320384B9B68BB613B69DB4346
:10279000BA691340BB613B685B6803F48013002B8C
:1027A00003D0BA693B691343BB612F4ABB6993608D
:1027B0002D4BDB68BB613B69DB43BA691340BB61EE
:1027C0003B685B6803F40013002B03D0BA693B69D4
:1027D0001343BB61244ABB69D360234B5B68BB6175
:1027E0003B69DB43BA691340BB613B685B6803F438
:1027F0000033002B03D0BA693B691343BB611A4A0B
:10280000BB695360184B1B68BB613B69DB43BA690A
:102810001340BB613B685B6803F48033002B03D03B
:10282000BA693B691343BB610F4ABB691360FB691B
:102830000133FB61FB690F2B7FF6A2AE00BF00BF27
:102840002437BD465DF8047B704700BF0038024066
:10285000003801400000024000040240000802402D
:10286000000C024000100240003C014080B584B0E2
:1028700000AF78607B68002B01D101232BE17B68DE
:1028800093F83D30DBB2002B06D17B68002283F841
:102890003C207868FFF7BCF87B68242283F83D2051
:1028A0007B681B681A687B681B6822F001021A604B
:1028B0007B681B681A687B681B6842F400421A60D8
:1028C0007B681B681A687B681B6822F400421A60E8
:1028D00001F048F8F8607B685B68814A934207D84A
:1028E000FB68804A934294BF01230023DBB206E0D9
:1028F000FB687D4A934294BF01230023DBB2002B87
:1029000001D00123E7E0FB68784AA2FB03239B0C7C
:10291000BB607B681B685B6823F03F017B681B68BA
:10292000BA680A435A607B681B681B6A23F03F0140
:102930007B685B686A4A934202D8BB68013309E04E
:10294000BB684FF4967202FB03F3694AA2FB0323B0
:102950009B0901337A6812680B4313627B681B681A
:10296000DB6923F44F4222F0FF027B685B685C491D
:102970008B4219D8FB68591E7B685B685B00B1FB12
:10298000F3F3591C40F6FC730B40002B0AD0FB6894
:10299000591E7B685B685B00B1FBF3F30133C3F343
:1029A0000B0351E004234FE07B689B68002B11D19F
:1029B000FB68581E7B6859680B465B000B44B0FBF4
:1029C000F3F30133C3F30B03002B0CBF01230023EC
:1029D000DBB212E0FB68581E7B6859680B469B000F
:1029E0000B4499000B44B0FBF3F30133C3F30B0327
:1029F000002B0CBF01230023DBB2002B01D00123ED
:102A000022E07B689B68002B0ED1FB68581E7B6818
:102A100059680B465B000B44B0FBF3F30133C3F37F
:102A20000B0343F400430FE0FB68581E7B685968B2
:102A30000B469B000B4499000B44B0FBF3F30133AE
:102A4000C3F30B0343F44043796809681343CB6134
:102A50007B681B681B6823F0C0017B68DA697B68B0
:102A60001B6A1A437B681B680A431A607B681B68F1
:102A70009B6823F4034323F0FF037A6811697A68A3
:102A8000D26811437A6812680B4393607B681B68B5
:102A9000DB6823F0FF017B685A697B689B691A43F6
:102AA0007B681B680A43DA607B681B681A687B686E
:102AB0001B6842F001021A607B6800221A647B687E
:102AC000202283F83D207B6800221A637B68002265
:102AD00083F83E20002318461037BD4680BD00BF56
:102AE000A08601007F841E00FF083D0083DE1B439B
:102AF000D34D621080B588B002AFF8607A601A4694
:102B00000B467B8113463B81FFF7B4F97861FB6884
:102B100093F83D30DBB2202B40F0E0807B690093DE
:102B2000192301227049F86800F064F90346002B6C
:102B300001D00223D3E0FB6893F83C30012B01D194
:102B40000223CCE0FB68012283F83C20FB681B6871
:102B50001B6803F00103012B07D0FB681B681A6890
:102B6000FB681B6842F001021A60FB681B681A6868
:102B7000FB681B6822F400621A60FB68212283F85C
:102B80003D20FB68102283F83E20FB6800221A6477
:102B9000FB687A685A62FB683A895A85FB685B8DE4
:102BA0009AB2FB681A85FB68504ADA6279897B69B8
:102BB0003A6AF86800F09CF80346002B01D0012324
:102BC0008DE000233B61FB681B685B693B61FB6830
:102BD0001B689B693B613B6966E07A69396AF86802
:102BE00000F0DEF90346002B0DD0FB681B6C042BB4
:102BF00007D1FB681B681A68FB681B6842F4007207
:102C00001A6001236BE0FB685B6A1A78FB681B683B
:102C10001A61FB685B6A5A1CFB685A62FB685B8D31
:102C20009BB2013B9AB2FB685A85FB681B8D013B46
:102C30009AB2FB681A85FB681B685B6903F00403A2
:102C4000042B1BD1FB681B8D002B17D0FB685B6A24
:102C50001A78FB681B681A61FB685B6A5A1CFB6880
:102C60005A62FB685B8D9BB2013B9AB2FB685A8546
:102C7000FB681B8D013B9AB2FB681A857A69396A39
:102C8000F86800F0CEF90346002B0DD0FB681B6CF2
:102C9000042B07D1FB681B681A68FB681B6842F4A9
:102CA00000721A6001231AE0FB681B8D002B94D17F
:102CB000FB681B681A68FB681B6842F400721A60A4
:102CC000FB68202283F83D20FB68002283F83E2029
:102CD000FB68002283F83C20002300E00223184612
:102CE0001837BD4680BD00BF020010000000FFFF86
:102CF00080B588B002AFF8607A603B600B467B819C
:102D0000FB68DB6A7B617B69082B06D07B69012B42
:102D100003D07B6913F5803F08D1FB681B681A68F4
:102D2000FB681B6842F480721A600BE0FB681B6B47
:102D3000122B07D1FB681B681A68FB681B6842F4FA
:102D400080721A603B6800937B6800224FF001118B
:102D5000F86800F04FF80346002B0DD0FB681B68A5
:102D60001B6803F48073B3F5807F03D1FB684FF4D5
:102D700000721A64032335E0FB681B69B3F5804FCA
:102D800008D17B89DBB21A46FB681B6802F0FE02A1
:102D90001A611BE07B89DB11DBB203F00603DBB2B7
:102DA00063F00F03DAB2FB681B681A613B687A684C
:102DB0000E49F86800F075F80346002B01D0012396
:102DC00010E07B89DAB2FB681B681A613B687A689D
:102DD0000749F86800F065F80346002B01D001238D
:102DE00000E0002318461837BD4680BD08000100EA
:102DF0000200010080B584B000AFF860B9603B60AC
:102E00001346FB7125E03B68B3F1FF3F21D0FFF78C
:102E100031F80246BB69D31A3A689A4202D33B683A
:102E2000002B16D1FB6800221A63FB68202283F86E
:102E30003D20FB68002283F83E20FB681B6C43F0BA
:102E40002002FB681A64FB68002283F83C200123FF
:102E500023E0BB681B0CDBB2012B0DD1FB681B68A8
:102E60005B69DA43BB6813409BB2002B0CBF0123A4
:102E70000023DBB21A460CE0FB681B689B69DA434F
:102E8000BB6813409BB2002B0CBF01230023DBB2B5
:102E90001A46FB799A42B6D0002318461037BD4631
:102EA00080BD80B584B000AFF860B9607A603B60E7
:102EB00051E0FB681B685B6903F48063B3F5806FC6
:102EC00023D1FB681B681A68FB681B6842F4007218
:102ED0001A60FB681B686FF480625A61FB6800220D
:102EE0001A63FB68202283F83D20FB68002283F8E8
:102EF0003E20FB681B6C43F00402FB681A64FB680D
:102F0000002283F83C20012346E07B68B3F1FF3FB9
:102F100021D0FEF7AFFF02463B68D31A7A689A4287
:102F200002D37B68002B16D1FB6800221A63FB6872
:102F3000202283F83D20FB68002283F83E20FB68B6
:102F40001B6C43F02002FB681A64FB68002283F8C4
:102F50003C20012320E0BB681B0CDBB2012B0CD111
:102F6000FB681B685B69DA43BB6813409BB2002BAC
:102F700014BF01230023DBB20BE0FB681B689B69D5
:102F8000DA43BB6813409BB2002B14BF012300231C
:102F9000DBB2002B8DD1002318461037BD4680BD13
:102FA00080B584B000AFF860B9607A602DE0F86851
:102FB00000F078F80346002B01D001232DE0BB6818
:102FC000B3F1FF3F21D0FEF755FF02467B68D31ACD
:102FD000BA689A4202D3BB68002B16D1FB68002264
:102FE0001A63FB68202283F83D20FB68002283F8E7
:102FF0003E20FB681B6C43F02002FB681A64FB68F0
:10300000002283F83C20012307E0FB681B685B6912
:1030100003F08003802BCAD1002318461037BD4629
:1030200080BD80B584B000AFF860B9607A602DE0F3
:10303000F86800F037F80346002B01D001232DE09B
:10304000BB68B3F1FF3F21D0FEF714FF02467B6857
:10305000D31ABA689A4202D3BB68002B16D1FB6818
:1030600000221A63FB68202283F83D20FB680022BF
:1030700083F83E20FB681B6C43F02002FB681A6457
:10308000FB68002283F83C20012307E0FB681B68F3
:103090005B6903F00403042BCAD1002318461037E0
:1030A000BD4680BD80B483B000AF78607B681B688C
:1030B0005B6903F48063B3F5806F1BD17B681B6889
:1030C0006FF480625A617B6800221A637B68202259
:1030D00083F83D207B68002283F83E207B681B6CD0
:1030E00043F004027B681A647B68002283F83C206A
:1030F000012300E0002318460C37BD465DF8047B31
:103100007047000080B586B000AF78607B68002B08
:1031100001D1012367E27B681B6803F00103002BE8
:1031200075D0884B9B6803F00C03042B0CD0854BA7
:103130009B6803F00C03082B12D1824B5B6803F4ED
:103140008003B3F5800F0BD17E4B1B6803F4003373
:10315000002B5BD07B685B68002B57D1012342E2D8
:103160007B685B68B3F5803F06D1764B1B68754A78
:1031700043F4803313601DE07B685B68B3F5A02FD8
:103180000CD1704B1B686F4A43F4802313606D4B66
:103190001B686C4A43F4803313600BE0694B1B6877
:1031A000684A23F480331360664B1B68654A23F436
:1031B000802313607B685B68002B13D0FEF75AFEF8
:1031C000386108E0FEF756FE02463B69D31A642BCD
:1031D00001D9032307E25B4B1B6803F40033002B88
:1031E000F0D014E0FEF746FE386108E0FEF742FE3C
:1031F00002463B69D31A642B01D90323F3E1514BF7
:103200001B6803F40033002BF0D100E000BF7B68A3
:103210001B6803F00203002B63D04A4B9B6803F04A
:103220000C03002B0BD0474B9B6803F00C03082BBF
:103230001CD1444B5B6803F48003002B16D1414B37
:103240001B6803F00203002B05D07B68DB68012BB1
:1032500001D00123C7E13B4B1B6823F0F8027B68D8
:103260001B69DB00374913430B603AE07B68DB687E
:10327000002B20D0344B01221A60FEF7FBFD386191
:1032800008E0FEF7F7FD02463B69D31A022B01D98D
:103290000323A8E12B4B1B6803F00203002BF0D0A3
:1032A000284B1B6823F0F8027B681B69DB0025496B
:1032B00013430B6015E0244B00221A60FEF7DAFD81
:1032C000386108E0FEF7D6FD02463B69D31A022BAF
:1032D00001D9032387E11B4B1B6803F00203002B7A
:1032E000F0D17B681B6803F00803002B36D07B68A5
:1032F0005B69002B16D0154B01221A60FEF7BAFD50
:10330000386108E0FEF7B6FD02463B69D31A022B8E
:1033100001D9032367E10B4B5B6F03F00203002B22
:10332000F0D01BE0094B00221A60FEF7A3FD3861C4
:103330000EE0FEF79FFD02463B69D31A022B07D928
:10334000032350E10038024000004742800E47420C
:10335000884B5B6F03F00203002BEAD17B681B688C
:1033600003F00403002B00F097800023FB75814BD2
:103370001B6C03F08053002B0FD10023BB607D4BEF
:103380001B6C7C4A43F0805313647A4B1B6C03F034
:103390008053BB60BB680123FB75774B1B6803F44C
:1033A0008073002B18D1744B1B68734A43F48073ED
:1033B0001360FEF75FFD386108E0FEF75BFD024633
:1033C0003B69D31A022B01D903230CE16A4B1B681A
:1033D00003F48073002BF0D07B689B68012B06D12F
:1033E000644B1B6F634A43F0010313671CE07B6867
:1033F0009B68052B0CD15F4B1B6F5E4A43F00403A7
:1034000013675C4B1B6F5B4A43F0010313670BE0D0
:10341000584B1B6F574A23F001031367554B1B6F23
:10342000544A23F0040313677B689B68002B15D074
:10343000FEF720FD38610AE0FEF71CFD02463B69FD
:10344000D31A41F28832934201D90323CBE0494B8E
:103450001B6F03F00203002BEED014E0FEF70AFD11
:1034600038610AE0FEF706FD02463B69D31A41F2D5
:103470008832934201D90323B5E03E4B1B6F03F022
:103480000203002BEED1FB7D012B05D1394B1B6CC8
:10349000384A23F0805313647B689B69002B00F04B
:1034A000A180344B9B6803F00C03082B5CD07B6835
:1034B0009B69022B41D1314B00221A60FEF7DAFCE6
:1034C000386108E0FEF7D6FC02463B69D31A022BAE
:1034D00001D9032387E0274B1B6803F00073002BFF
:1034E000F0D17B68DA697B681B6A1A437B685B6A88
:1034F0009B011A437B689B6A5B08013B1B041A43D0
:103500007B68DB6A1B061B4913434B601B4B012284
:103510001A60FEF7AFFC386108E0FEF7ABFC02462C
:103520003B69D31A022B01D903235CE0114B1B68C2
:1035300003F00073002BF0D054E0104B00221A600F
:10354000FEF798FC386108E0FEF794FC02463B6900
:10355000D31A022B01D9032345E0064B1B6803F065
:103560000073002BF0D13DE07B689B69012B07D1F4
:10357000012338E0003802400070004060004742FC
:103580001B4B5B68FB607B689B69012B28D0FB6849
:1035900003F480027B68DB699A4221D1FB6803F067
:1035A0003F027B681B6A9A421AD1FA6847F6C073D9
:1035B00013407A68526A9201934211D1FB6803F476
:1035C00040327B689B6A5B08013B1B049A4207D12F
:1035D000FB6803F070627B68DB6A1B069A4201D0CD
:1035E000012300E0002318461837BD4680BD00BF08
:1035F0000038024080B584B000AF786039607B68E5
:10360000002B01D10123CCE0684B1B6803F00703BA
:103610003A689A420CD9654B3A68D2B21A70634B39
:103620001B6803F007033A689A4201D00123B8E00F
:103630007B681B6803F00203002B20D07B681B68AB
:1036400003F00403002B05D0594B9B68584A43F400
:10365000E05393607B681B6803F00803002B05D0E0
:10366000534B9B68524A43F460439360504B9B68B2
:1036700023F0F0027B689B684D4913438B607B68A5
:103680001B6803F00103002B44D07B685B68012BAF
:1036900007D1474B1B6803F40033002B19D10123DA
:1036A0007FE07B685B68022B03D07B685B68032B41
:1036B00007D13F4B1B6803F00073002B09D1012396
:1036C0006FE03B4B1B6803F00203002B01D1012389
:1036D00067E0374B9B6823F003027B685B683449E3
:1036E00013438B60FEF7C6FBF8600AE0FEF7C2FBEF
:1036F0000246FB68D31A41F28832934201D9032370
:103700004FE02B4B9B6803F00C027B685B689B00CF
:103710009A42EBD1254B1B6803F007033A689A42A3
:103720000CD2224B3A68D2B21A70204B1B6803F0BD
:1037300007033A689A4201D0012332E07B681B6894
:1037400003F00403002B08D0194B9B6823F4E052CC
:103750007B68DB68164913438B607B681B6803F04A
:103760000803002B09D0124B9B6823F460427B684E
:103770001B69DB000E4913438B6000F021F8024601
:103780000B4B9B681B0903F00F030A49CB5C22FA21
:1037900003F3094A1360094B1B681846FEF726FB22
:1037A000002318461037BD4680BD00BF003C0240D4
:1037B00000380240B08F00080400002008000020FC
:1037C0002DE9B04F90B000AF00237B630023FB6373
:1037D00000233B630023BB63594B9B6803F00C033E
:1037E000082B0DD0082B00F2A180002B02D0042B57
:1037F00003D09BE0534BBB639BE0534BBB6398E010
:103800004F4B5B6803F03F037B634D4B5B6803F4F6
:103810008003002B28D04A4B5B689B0900223B6247
:103820007A623B6AC3F308000021474B03FB01F2B5
:10383000002300FB03F31344434AA0FB0212FA6285
:103840000A46BA62FA6A1344FB627B6B0022BB61D0
:10385000FA61D7E90623D7E90A01FDF71DFA024606
:103860000B461346FB6353E0354B5B689B09002214
:103870003B617A613B69C3F3080A4FF0000B524683
:103880005B464FF000004FF00001590141EAD26160
:10389000500102460B46B2EB0A0863EB0B094FF0EE
:1038A00000024FF000034FEA891343EA98634FEA9E
:1038B0008812B2EB080463EB09054FF000024FF0E9
:1038C0000003EB0043EA5473E20014461D4614EB78
:1038D0000A033B6045EB0B037B604FF000024FF0A7
:1038E0000003D7E9004529468B02214643EA91535C
:1038F00021468A02104619467B6B0022BB60FA60A3
:10390000D7E90223FDF7C8F902460B461346FB63CD
:103910000B4B5B681B0C03F0030301335B003B6341
:10392000FA6B3B6BB2FBF3F3BB6302E0054BBB638B
:1039300000BFBB6B18464037BD46BDE8B08F00BF27
:10394000003802400024F40040787D0180B400AFCC
:10395000034B1B681846BD465DF8047B704700BFEB
:103960000400002080B500AFFFF7F0FF0246054BD2
:103970009B689B0A03F007030349CB5C22FA03F31D
:10398000184680BD00380240C08F000880B582B064
:1039900000AF78607B68002B01D1012341E07B6898
:1039A00093F83D30DBB2002B06D17B68002283F810
:1039B0003C207868FEF774F87B68022283F83D208B
:1039C0007B681A687B6804331946104600F0C0FA19
:1039D0007B68012283F846207B68012283F83E2021
:1039E0007B68012283F83F207B68012283F8402016
:1039F0007B68012283F841207B68012283F8422002
:103A00007B68012283F843207B68012283F84420ED
:103A10007B68012283F845207B68012283F83D20E2
:103A2000002318460837BD4680BD80B582B000AF80
:103A300078607B68002B01D1012341E07B6893F81B
:103A40003D30DBB2002B06D17B68002283F83C209E
:103A5000786800F039F87B68022283F83D207B68A3
:103A60001A687B6804331946104600F071FA7B68C7
:103A7000012283F846207B68012283F83E207B6880
:103A8000012283F83F207B68012283F840207B6875
:103A9000012283F841207B68012283F842207B6861
:103AA000012283F843207B68012283F844207B684D
:103AB000012283F845207B68012283F83D20002302
:103AC00018460837BD4680BD80B483B000AF78602B
:103AD00000BF0C37BD465DF8047B704780B584B0ED
:103AE00000AF786039603B68002B09D17B6893F8A0
:103AF0003E30DBB2012B14BF01230023DBB222E0F6
:103B00003B68042B09D17B6893F83F30DBB2012B73
:103B100014BF01230023DBB215E03B68082B09D159
:103B20007B6893F84030DBB2012B14BF01230023E4
:103B3000DBB208E07B6893F84130DBB2012B14BFA5
:103B400001230023DBB2002B01D0012368E03B6896
:103B5000002B04D17B68022283F83E2013E03B68EF
:103B6000042B04D17B68022283F83F200BE03B68E2
:103B7000082B04D17B68022283F8402003E07B6895
:103B8000022283F841207B681B68012239681846AD
:103B900000F084FC7B681B68234A934207D17B6852
:103BA0001B685A6C7B681B6842F400425A647B684D
:103BB0001B681D4A934218D07B681B68B3F1804F85
:103BC00013D07B681B68194A93420ED07B681B6830
:103BD000174A934209D07B681B68164A934204D067
:103BE0007B681B68144A934211D17B681B689B68F1
:103BF00003F00703FB60FB68062B10D07B681B6893
:103C00001A687B681B6842F001021A6007E07B6853
:103C10001B681A687B681B6842F001021A60002367
:103C200018461037BD4680BD00000140000400402A
:103C300000080040000C00400040014080B586B004
:103C400000AFF860B9607A600023FB75FB6893F8F9
:103C50003C30012B01D10223AEE0FB68012283F846
:103C60003C207B680C2B00F29F8001A252F823F0CD
:103C7000A53C0008A93D0008A93D0008A93D000891
:103C8000E53C0008A93D0008A93D0008A93D000841
:103C9000273D0008A93D0008A93D0008A93D0008EE
:103CA000673D0008FB681B68B968184600F0D0F94A
:103CB000FB681B689A69FB681B6842F008029A61FE
:103CC000FB681B689A69FB681B6822F004029A6112
:103CD000FB681B689969BB681A69FB681B680A4323
:103CE0009A6164E0FB681B68B968184600F016FA30
:103CF000FB681B689A69FB681B6842F400629A6162
:103D0000FB681B689A69FB681B6822F480629A61F1
:103D1000FB681B689969BB681B691A02FB681B6812
:103D20000A439A6143E0FB681B68B968184600F0D3
:103D300061FAFB681B68DA69FB681B6842F00802DD
:103D4000DA61FB681B68DA69FB681B6822F0040211
:103D5000DA61FB681B68D969BB681A69FB681B6874
:103D60000A43DA6123E0FB681B68B968184600F073
:103D7000ABFAFB681B68DA69FB681B6842F40062F7
:103D8000DA61FB681B68DA69FB681B6822F48062F1
:103D9000DA61FB681B68D969BB681B691A02FB689A
:103DA0001B680A43DA6102E00123FB7500BFFB6870
:103DB000002283F83C20FB7D18461837BD4680BDA5
:103DC00080B584B000AF786039600023FB737B68F6
:103DD00093F83C30012B01D10223B4E07B6801222F
:103DE00083F83C207B68022283F83D207B681B68B7
:103DF0009B68BB60BB6823F07703BB60BB6823F4A0
:103E00007F43BB607B681B68BA689A603B681B682D
:103E1000B3F5005F3ED0B3F5005F00F28780B3F5E5
:103E2000805F00F08680B3F5805F7FD8702B1AD05A
:103E3000702B7BD8602B50D0602B77D8502B3CD088
:103E4000502B73D8402B58D0402B6FD8302B64D0D8
:103E5000302B6BD8202B60D0202B67D8002B5CD068
:103E6000102B5AD062E07B6818683B6899683B6801
:103E70005A683B68DB6800F0F1FA7B681B689B6856
:103E8000BB60BB6843F07703BB607B681B68BA68A4
:103E90009A604FE07B6818683B6899683B685A688D
:103EA0003B68DB6800F0DAFA7B681B689A687B681D
:103EB0001B6842F480429A603CE07B6818683B686B
:103EC00059683B68DB681A4600F04EFA7B681B684D
:103ED0005021184600F0A7FA2CE07B6818683B6870
:103EE00059683B68DB681A4600F06DFA7B681B680E
:103EF0006021184600F097FA1CE07B6818683B6860
:103F000059683B68DB681A4600F02EFA7B681B682C
:103F10004021184600F087FA0CE07B681A683B687D
:103F20001B681946104600F07EFA03E00123FB737C
:103F300000E000BF7B68012283F83D207B680022FF
:103F400083F83C20FB7B18461037BD4680BD00003F
:103F500080B485B000AF786039607B681B68FB6017
:103F60007B68344A93420FD07B68B3F1804F0BD00B
:103F70007B68314A934207D07B68304A934203D032
:103F80007B682F4A934208D1FB6823F07003FB60E3
:103F90003B685B68FA681343FB607B68254A934281
:103FA0001BD07B68B3F1804F17D07B68224A9342C5
:103FB00013D07B68214A93420FD07B68204A9342FA
:103FC0000BD07B681F4A934207D07B681E4A9342FE
:103FD00003D07B681D4A934208D1FB6823F44073E9
:103FE000FB603B68DB68FA681343FB60FB6823F007
:103FF00080023B685B691343FB607B68FA681A6068
:104000003B689A687B68DA623B681A687B689A62E8
:104010007B68084A934203D13B681A697B681A633C
:104020007B6801225A6100BF1437BD465DF8047BEE
:10403000704700BF0000014000040040000800403D
:10404000000C004000400140004401400048014095
:1040500080B487B000AF786039607B681B6A23F05A
:1040600001027B681A627B681B6A7B617B685B6804
:104070003B617B689B69FB60FB6823F07003FB601E
:10408000FB6823F00303FB603B681B68FA6813437B
:10409000FB607B6923F002037B613B689B687A6964
:1040A00013437B617B681C4A93420CD17B6923F0EC
:1040B00008037B613B68DB687A6913437B617B693A
:1040C00023F004037B617B68134A934211D13B695F
:1040D00023F480733B613B6923F400733B613B68CD
:1040E0005B693A6913433B613B689B693A691343D7
:1040F0003B617B683A695A607B68FA689A613B6801
:104100005A687B685A637B687A691A6200BF1C37F9
:10411000BD465DF8047B70470000014080B487B065
:1041200000AF786039607B681B6A23F010027B68FF
:104130001A627B681B6A7B617B685B683B617B689A
:104140009B69FB60FB6823F4E043FB60FB6823F49E
:104150004073FB603B681B681B02FA681343FB60FB
:104160007B6923F020037B613B689B681B017A69B4
:1041700013437B617B681E4A93420DD17B6923F018
:1041800080037B613B68DB681B017A6913437B61B9
:104190007B6923F040037B617B68154A934213D10E
:1041A0003B6923F480633B613B6923F400633B611B
:1041B0003B685B699B003A6913433B613B689B69C1
:1041C0009B003A6913433B617B683A695A607B689C
:1041D000FA689A613B685A687B689A637B687A6977
:1041E0001A6200BF1C37BD465DF8047B704700BFF4
:1041F0000000014080B487B000AF786039607B6810
:104200001B6A23F480727B681A627B681B6A7B617D
:104210007B685B683B617B68DB69FB60FB6823F064
:104220007003FB60FB6823F00303FB603B681B68C3
:10423000FA681343FB607B6923F400737B613B687E
:104240009B681B027A6913437B617B681D4A93421A
:104250000DD17B6923F400637B613B68DB681B0243
:104260007A6913437B617B6923F480637B617B689C
:10427000144A934213D13B6923F480533B613B6959
:1042800023F400533B613B685B691B013A691343AC
:104290003B613B689B691B013A6913433B617B6847
:1042A0003A695A607B68FA68DA613B685A687B68E9
:1042B000DA637B687A691A6200BF1C37BD465DF815
:1042C000047B70470000014080B487B000AF786085
:1042D00039607B681B6A23F480527B681A627B68B2
:1042E0001B6A3B617B685B687B617B68DB69FB60A9
:1042F000FB6823F4E043FB60FB6823F44073FB603E
:104300003B681B681B02FA681343FB603B6923F49C
:1043100000533B613B689B681B033A6913433B6155
:104320007B68104A934209D17B6923F480437B6107
:104330003B685B699B017A6913437B617B687A699F
:104340005A607B68FA68DA613B685A687B681A646D
:104350007B683A691A6200BF1C37BD465DF8047B72
:10436000704700BF0000014080B487B000AFF86024
:10437000B9607A60FB681B6A7B61FB681B6A23F08B
:104380000102FB681A62FB689B693B613B6923F091
:10439000F0033B617B681B013A6913433B617B6916
:1043A00023F00A037B617A69BB6813437B61FB6876
:1043B0003A699A61FB687A691A6200BF1C37BD4688
:1043C0005DF8047B704780B487B000AFF860B960D7
:1043D0007A60FB681B6A23F01002FB681A62FB68B4
:1043E0009B697B61FB681B6A3B617B6923F47043BB
:1043F0007B617B681B037A6913437B613B6923F014
:10440000A0033B61BB681B013A6913433B61FB6836
:104410007A699A61FB683A691A6200BF1C37BD4627
:104420005DF8047B704780B485B000AF7860396078
:104430007B689B68FB60FB6823F07003FB603A6855
:10444000FB68134343F00703FB607B68FA689A60DC
:1044500000BF1437BD465DF8047B704780B487B059
:1044600000AFF860B9607A603B60FB689B687B6175
:104470007B6923F47F437B613B681A027B681A43A4
:10448000BB6813437A6913437B61FB687A699A605E
:1044900000BF1C37BD465DF8047B704780B487B011
:1044A00000AFF860B9607A60BB6803F01F030122B7
:1044B00002FA03F37B61FB681A6A7B69DB431A40EB
:1044C000FB681A62FB681A6ABB6803F01F0379680D
:1044D00001FA03F31A43FB681A6200BF1C37BD469A
:1044E0005DF8047B7047000080B485B000AF786051
:1044F00039607B6893F83C30012B01D1022350E0F6
:104500007B68012283F83C207B68022283F83D20EF
:104510007B681B685B68FB607B681B689B68BB6093
:10452000FB6823F07003FB603B681B68FA68134369
:10453000FB607B681B68FA685A607B681B681C4AD2
:10454000934218D07B681B68B3F1804F13D07B680F
:104550001B68184A93420ED07B681B68164A934228
:1045600009D07B681B68154A934204D07B681B689E
:10457000134A93420CD1BB6823F08003BB603B68B5
:104580005B68BA681343BB607B681B68BA689A6053
:104590007B68012283F83D207B68002283F83C2061
:1045A000002318461437BD465DF8047B704700BFF2
:1045B000000001400004004000080040000C0040E2
:1045C00000400140014B1868704700BF10000020F8
:1045D00070B50D4D0D4C641BA4100026A64209D1E8
:1045E0000B4D0C4C04F090FC641BA4100026A6425A
:1045F00005D170BD55F8043B98470136EEE755F8F4
:10460000043B98470136F2E774940008749400085C
:10461000749400087894000802440346934200D141
:10462000704703F8011BF9E72DE9FF4755EC104BE4
:10463000002D0E4619462B46BBBF05F100431D4613
:1046400000232D230B700D9BDDF830A0914623F045
:104650002008BCBF22461446B8F1460F05D0B8F179
:10466000450F00D10136022100E0032103AB019385
:1046700002AB009345EC104B5346324601F0ACFDC3
:10468000B8F1470F074602D119F0010F22D0B8F157
:10469000460F07EB060910D13B78302B0AD10022D8
:1046A000002320462946FCF717FA18B9C6F101067F
:1046B000CAF80060DAF8003099440022002320464E
:1046C0002946FCF709FA08B1CDF80C903022039B7B
:1046D0004B4507D3039B0E9ADB1B3846136004B08F
:1046E000BDE8F087591C03911A70F0E7F7B503464F
:1046F0000029B8BF494203F8022BB4BF2D222B2258
:10470000092942702ADD0DF10704A4460A27A646AE
:104710000A4691FBF7F607FB16153035632A04F1BC
:10472000FF340EF8015C3146F1DC3031AEF10205A8
:1047300004F8011C441C294661450AD30DF1090205
:10474000A2EB0E02654588BF00221344181A03B07D
:10475000F0BD11F8012B04F8012FEDE730233031C3
:104760008370C170031DF1E72DE9F04F2DED028B31
:104770008DB00C46DDF8608016461F46054602F0F7
:1047800089FED0F800A05046FBF72AFD00230A93CB
:1047900023680593D8F8003094F818B0073323F055
:1047A000070303F10802C8F80020D3E90023C4E995
:1047B0001223D4E9128929F000430793CDF8188019
:1047C00008EE100A9F4BDDE906014FF0FF32FCF7BF
:1047D000B5F988BBDDE906019A4B4FF0FF32FCF7D3
:1047E0008FF948BB0022002340464946FCF77EF97A
:1047F00010B12D2384F84330934B9448BBF1470FFD
:1048000094BF9846804603232361059B23F004024E
:1048100022604FF00009009733460BAA2146284634
:1048200000F0D8F9013040F090804FF0FF300DB02B
:10483000BDEC028BBDE8F08F42464B4640464946F0
:10484000FCF77CF940B14B46002BBCBF2D2384F80C
:1048500043307F487F4BD1E763680BF0DF0206925D
:104860005A1C3FD106236360059B616843F4806254
:10487000002303930AABCDE901B309AB49EC108BDC
:10488000009322600DF123032846FFF7CDFE069B1F
:104890000999472B804608D1C81C02DB63689942FE
:1048A00041DDABF1020B5FFA8BFBBBF1650F20D84A
:1048B00001395A4604F150000991FFF717FF0A9A8F
:1048C0001318012A8146236102DC2268D20701D530
:1048D000013323619DF82330002B9CD02D2384F8D5
:1048E000433098E7069A472ABED1002BBCD101235A
:1048F000B9E7BBF1660F18D1002963680BDD2161B0
:1049000013B92268D00702D501330B442361A16596
:104910004FF00009DEE713B92268D20701D5023350
:10492000F4E70123F2E74FF0670B0A9B994205DB9E
:1049300023682161D807EAD54B1CE7E70029D4BFDB
:10494000C1F1020201221344E0E723685A0507D4AB
:104950002369424631462846B84701302CD164E7E6
:10496000BBF1650F40F2E080D4E912010022002380
:10497000FCF7B2F8002834D0374A012331462846E4
:10498000B84701303FF451AFDDE909239A4202DB19
:104990002368D80710D518EE103A524631462846FB
:1049A000B84701303FF441AF4FF0000804F11A0955
:1049B0000A9B013B434509DC23689B0700F1058105
:1049C000E0680B9B9842B8BF184630E701234A467F
:1049D00031462846B84701303FF427AF08F10108B7
:1049E000E6E7099B002B39DC1B4A012331462846A8
:1049F000B84701303FF419AFDDE90923134302D171
:104A00002368D907D8D518EE103A524631462846C1
:104A1000B84701303FF409AF4FF0000904F11A0A1A
:104A2000099B5B424B4501DC0A9B92E701235246FE
:104A300031462846B84701303FF4F7AE09F1010985
:104A4000EEE700BFFFFFEF7FCC8F0008D08F00089C
:104A5000D88F0008D48F0008DC8F00080A9AA36D55
:104A60009A42A8BF1A46002A914637DC4FF0000B45
:104A700029EAE97904F11A02A36D0593A3EB09036E
:104A80005B4533DCDDE909239A423BDB2368DA0727
:104A900038D40A9B059A09999A1AA3EB0109914502
:104AA000A8BF9146B9F1000F35DC4FF0000829EAA4
:104AB000E97904F11A0ADDE909239B1AA3EB09033A
:104AC00043457FF779AF0123524631462846B84720
:104AD00001303FF4AAAE08F10108ECE71346314675
:104AE00042462846B8470130C0D19EE601233146F0
:104AF00028460592B84701303FF497AE059A0BF16E
:104B0000010BB9E718EE103A524631462846B8472D
:104B10000130BED189E6059A4B46424431462846CB
:104B2000B8470130C1D180E60A9A012A01DCDB07CF
:104B300038D50123424631462846B84701303FF474
:104B400074AE18EE103A524631462846B847013046
:104B50003FF46BAED4E9120100220023FBF7BCFF47
:104B6000D8B90A9B08F10102013B31462846B847F3
:104B700001300ED159E60123524631462846B84746
:104B800001303FF452AE08F101080A9B013B434556
:104B9000F1DC4B4604F15002DCE64FF0000804F172
:104BA0001A0AF2E701234246DFE701234A4631466B
:104BB0002846B84701303FF438AE08F10108E368F1
:104BC0000B995B1A4345F0DCFAE64FF0000804F15C
:104BD0001909F4E72DE9F047164699468A680B69EA
:104BE000DDF820809342B8BF1346336091F843202C
:104BF00007460C460AB1013333602368990642BF69
:104C0000336802333360256815F0060506D104F1D8
:104C1000190AE36832689B1AAB4226DC94F84320F9
:104C2000131E226818BF012392062BD404F14302FD
:104C300049463846C04701301ED02368E5683268CF
:104C400003F00603042B08BFAD1AA36822690CBF4A
:104C500025EAE57500259342C4BF9B1AED1800268E
:104C60001A34B5421AD1002008E0012352464946C1
:104C70003846C047013003D14FF0FF30BDE8F08720
:104C80000135C6E7E1185A1C302081F84300224460
:104C900094F8451082F843100233C7E701232246F7
:104CA00049463846C0470130E6D00136D9E7000012
:104CB0002DE9FF470F7E0C9D782F914680460C46CC
:104CC0009A4601F1430207D8622F0AD8002F00F05C
:104CD000D880582F00F0A38004F1420584F8427078
:104CE0003AE0A7F16303152BF6D801A151F823F0A0
:104CF000494D00085D4D0008D94C0008D94C00080A
:104D0000D94C0008D94C00085D4D0008D94C00086A
:104D1000D94C0008D94C0008D94C0008694E00084D
:104D20008D4D00084B4E0008D94C0008D94C0008A6
:104D30008B4E0008D94C00088D4D0008D94C000856
:104D4000D94C0008534E00082B681A1D1B682A60B6
:104D500004F1420584F842300123A3E02068296869
:104D6000060601F104030AD50E682B60002E03DA53
:104D70002D23764284F843305E480A2319E00E68FA
:104D80002B6010F0400F18BF36B2EFE72B68206899
:104D9000191D2960010601D51E6802E04606FBD5F3
:104DA0001E8854486F2F0CBF08230A23002184F863
:104DB00043106568A560002DA2BF216821F00401A1
:104DC00021600EB9002D4DD01546B6FBF3F103FB63
:104DD0001167C75D05F8017D3746BB420E46F4D921
:104DE000082B0BD12368DE0708D523696168994237
:104DF000DEBF302305F8013C05F1FF35521B22616F
:104E0000CDF800A04B4603AA21464046FFF7E2FE3C
:104E100001304CD14FF0FF3004B0BDE8F087354889
:104E200081F845702968236851F8046B29601D06D4
:104E300014D5DF0744BF43F0200323601EB9236865
:104E400023F0200323601023B0E7236843F02003FE
:104E500023607823284884F84530E3E7590648BFA3
:104E6000B6B2E6E71546BBE72B6826686169181DF0
:104E7000286035061B6801D5196002E07006FBD575
:104E80001980002323611546BAE72B681A1D2A6092
:104E90001D68626800212846FBF7AAF908B1401B8B
:104EA000606063682361002384F84330A8E72369C6
:104EB0002A4649464046D0470130ABD023689B077D
:104EC00013D4E068039B9842B8BF1846A4E70123B7
:104ED000324649464046D04701309BD00135E36811
:104EE00003995B1AAB42F2DCEBE7002504F11906EB
:104EF000F5E700BFDE8F0008EF8F00082DE9F04FC7
:104F000087B0174603938B685A1EB2F5AE7F83BFF6
:104F10006FF4AE755B190293002386BF40F25D13F8
:104F20008B6002930B688B46002543F4F0634BF8CB
:104F30001C3BCDE9045580460C465E46AA46A94670
:104F40000195A26852B13B681B784E2B64D8402B68
:104F50003CD8A3F12B01C8B20E283AD9B9F1000F01
:104F600003D0236823F4807323600AF1FF3ABAF177
:104F7000010F00F213815E4500F2058101252846EC
:104F800007B0BDE8F08FA3F161020D2AE6D801A1B8
:104F900051F822F0D35000085D4F00085D4F000823
:104FA0005D4F0008335100080B5100085D4F0008A9
:104FB0005D4F0008E15000085D4F00085D4F00089C
:104FC0005D4F00085D4F000899500008A3F14102B1
:104FD000DBE70E29C2D801A050F821F08B50000861
:104FE0005D4F00088B5000081F5100085D4F0008FE
:104FF00039500008755000087550000875500008B9
:10500000755000087550000875500008755000086C
:1050100075500008755000086E2B09D8602BB2D867
:10502000542B77D0592B99D1072D97D1082529E0FA
:10503000742B6FD0792BF6E72168C8051AD5029B2F
:1050400021F08001216009F101091BB1013B01320E
:105050000293A260A368013BA3602369013323612B
:105060007B68013B002B7B6040F384803B6801330D
:105070003B6066E71AEB050F7FF470AF226822F4FD
:10508000C072226006F8013BE4E7226810067FF553
:1050900065AF22F08002F4E7BAF1000F0ED1B9F14A
:1050A000000F0ED1226802F4E061B1F5E06F08D183
:1050B00022F4F06222604FF0010AE3E7BAF1020F36
:1050C00055D0012D02D0042D7FF448AF0135EDB24B
:1050D000D8E7BAF1010F7FF441AF4FF0020AD1E7F0
:1050E0007DB9B9F1000F7FF43CAF226802F4E061B2
:1050F000B1F5E06F7FF439AF22F4F0622260012550
:10510000C0E7032DE2D0052DDEE7022D7FF426AFA8
:105110000325B7E7062D7FF421AF0725B2E7226804
:1051200091057FF51BAF22F420722260CDF8049028
:10513000A8E7226802F4A061B1F5806F06D050059F
:105140007FF50CAFB9F1000F3FF40FAF910558BFD9
:10515000019922F4F06258BFA9EB010142F4C07238
:1051600058BFCDE9041622604FF000098AE74FF0DE
:10517000030A87E7D4F8803139464046984700282B
:105180003FF4DFAEEAE6D4F87C3116F8011D3A466A
:10519000404698472369013B2361ECE66B1E062BD2
:1051A00025D8022D36D85E457FF6E8AED4F87C319E
:1051B00016F8011D3A46404698472369013B236192
:1051C000F1E70298D4F87C3110F8011D02903A46BC
:1051D000404698472369013B23610AF1FF3A5FFA91
:1051E0008AFABAF1020FECD1033DEDB2761B2368C7
:1051F000DA052FD55B0510D55E457FF6BFAED4F836
:105200007C3116F8011D3A46404698472369013B18
:105210002361F1E7AA460296DFE716F8011C23692D
:10522000652903F1FF3306F1FF3523610CD04529D1
:105230000AD0D4F87C313A4640469847236916F89C
:10524000021C013BB51E2361D4F87C313A4640462E
:1052500098472E46256815F0100559D135702368FA
:1052600003F4C063B3F5806F1BD1019B4B45A3EBE7
:10527000090223D100225946404600F097FE2268D9
:10528000039B12F0020F57EC106B1B6821D003999F
:105290001A1D0A601B68C3E90067E3680133E36015
:1052A0006DE6049B002BE5D005990A232A460131BF
:1052B000404600F003FF049B059EC21A04F26F13E0
:1052C0009E4228BF04F5B7761249304600F02CF80C
:1052D000D0E7039912F0040F03F104020A60D9D158
:1052E000D3F8008010EE102A10EE100A3B46394623
:1052F000FBF724FC28B1084800F010F888ED000AFC
:10530000CBE730463946FBF777FCC8F80000C4E726
:10531000002534E600900008089400089FED010A7B
:10532000704700BF0000C07F0EB400B59CB01DAB3D
:10533000029006906FF000410948079104910949D5
:1053400053F8042B05910068019302A902F0E2FED4
:10535000029B00221A701CB05DF804EB03B070478A
:10536000100000200802FFFF70B504460D4645EC12
:10537000104B164602F02CFC51EC100B7EB1C5F31D
:105380000A53C3F16B03002B09DD1B0503F17F55A5
:10539000002405F5401522462B46FBF735F970BD74
:1053A0002DE9F04F2DED028B9DB01F460023189381
:1053B000A24B13921B680593044618468846FAF7D9
:1053C0000FFF4FF0000A05464FF0000BCDF85C8050
:1053D000179B1A782B2A4ED03BD80D2A34D8082A8E
:1053E00034D8002A3ED000230A93179E3378302BFE
:1053F00040F0B080737803F0DF03582B68D10A9B2C
:10540000019318AB029700938D4A19AB17A9204658
:1054100001F038FD10F00707054605D0062F2CD106
:105420000136002317960A93139B002B40F09085BA
:105430000A9BEBB152460BF1004343EC102B1DB01D
:10544000BDEC028BBDE8F08F202ACCD1013317933D
:10545000BEE72D2AC7D101220A925A1C17925B7807
:10546000002BC2D1139BCDF85C80002B40F06E85E1
:1054700052465B46E1E70022EEE7189A3AB1352141
:105480001AA802F0B0FC1899204602F06FF8013F0C
:10549000042F06D8DFE807F00A0314170A00DDE935
:1054A0001AAB2807C0D54BF0004BBDE7DDE91AA3C6
:1054B000199A23F4801302F2334243EA025BF0E7C5
:1054C000DFF880B1EDE76FF0004B4FF0FF3AE8E70F
:1054D000179B5A1C17925B78302BF9D0002BA3D066
:1054E00001234FF000090493179B0893CDF81C90FB
:1054F0004F460A2217980678A6F13003D9B2092937
:105500002AD905992A4602F01FFF98B30020324697
:105510003D4605900346652A01D0452A18D11DB99C
:10552000049A02439ED00025DDF85C8008F1010258
:10553000179298F801202B2A75D02D2A7BD04FF096
:10554000000CA2F13001092940F28280CDF85C8084
:1055500000269DE00023C4E7082FD8BF079900F17B
:105560000100DABF02FB0133079302FB093901375F
:105570001790BFE7179B5A1917925A5D002F37D023
:1055800005903D46A2F13003092B12D90123C2E751
:10559000179B5A1C17925A780130302AF8D0A2F182
:1055A0003103082B00F2D984179B05900020089343
:1055B0000546303A00F1010314D0059919440591CC
:1055C0002B4600EB050E0A21734513D12B18082B2F
:1055D00005F1010505441CDC07990A2303FB01239F
:1055E00007930023179A511C179152781846C9E760
:1055F0003846D2E7082B04DC079E4E43079601335A
:10560000E2E703F1010CBCF1100FD8BF01FB09F96F
:10561000F5E7102DDCBF0A2303FB0929E1E700238E
:10562000059301237CE74FF0000C08F1020217926A
:1056300098F8022085E74FF0010CF6E75092000839
:10564000089000080000F07F179A511C17915278BB
:10565000302AF9D0A2F1310108293FF679AFA2F141
:10566000300E179A0692179A511C17915278A2F190
:105670003006092E37D9069E891B082944F61F6675
:1056800002DC7645A8BF7646BCF1000F00D076421A
:10569000002D4DD1049901437FF4C6AE002B7FF459
:1056A000E1AE692A27D024DC492A24D04E2A7FF48F
:1056B000D9AE9F4917A801F03DFE00283FF4D2AEB5
:1056C000179B1B78282B2DD19A491AAA17A801F0ED
:1056D00045FE052826D11B9BDDF868A043F0FF4B53
:1056E0004BF4E00BA0E60A2101FB0E2EAEF1300ECA
:1056F000B9E76E2ADBE7904917A801F01BFE0028E6
:105700003FF4B0AE179B8D49013B17A8179301F0EA
:1057100011FE10B9179B01331793DFF830B24FF029
:10572000000A81E6864802F0F7FD5BEC10AB7BE6F1
:10573000059B0798F31A002F08BF2F46102D0693DC
:10574000A846A8BF4FF01008FAF7E4FE092D8246DC
:105750008B4613DD7B4B03EBC80353E91223FAF7A7
:1057600053FF824648468B46FAF7D4FE02460B4664
:1057700050465946FAF792FD82468B460F2D38DC8B
:10578000069B002B3FF450AE24DD162B0BDC6D493D
:1057900001EBC301D1E9000152465B46FAF734FF41
:1057A00082468B4640E6069AC5F12503934220DBEC
:1057B000644CC5F10F0504EBC50152465B46D1E9C7
:1057C0000001FAF721FF069B5D1B04EBC504D4E939
:1057D0000023E3E7069B16330BDB059B9E1B594B0F
:1057E00003EBC606D6E9002350465946FBF736F8C8
:1057F000D6E7069BA5EB08089844B8F1000F74DDC6
:1058000018F00F030AD04F4901EBC30152465B4623
:10581000D1E90001FAF7F8FE82468B4638F00F080E
:105820004FD0B8F59A7F22DD00252E4607950595C5
:105830002223DFF818B123604FF0000A079B002BEA
:105840003FF4F2AD1899204601F090FE05992046EC
:1058500001F08CFE3146204601F088FE0799204673
:1058600001F084FE2946204601F080FEDCE5364B3F
:10587000049300234FEA2818504659469946B8F138
:10588000010F21DC0BB182468B462F4BABF1547BD1
:1058900003EBC90952465B46D9E90001FAF7B4FEA9
:1058A0002A4B0A460B402A498B428246BCD8A1F5B6
:1058B00080118B4286BFDFF89CB04FF0FF3A02F1B7
:1058C000547B0023049384E018F0010F05D0049B5F
:1058D000D3E90023FAF798FE0123049A083209F16C
:1058E00001094FEA68080492C9E7EAD0C8F1000844
:1058F00018F00F020AD0134B03EBC203504659466F
:10590000D3E90023FAF7AAFF82468B465FEA2818FC
:10591000D7D0B8F11F0F1FDD00252E46079505953E
:1059200022234FF0000A4FF0000B236086E700BFF0
:10593000D98F00081C900008D18F00085C910008E6
:1059400008940008E8920008C09200080000F07F68
:105950000000A07CFFFFEF7F18F0100318BF6A2340
:10596000DFF8AC93049350465946002318F0010F1A
:1059700004D0D9E90023FAF747FE01235FEA68085B
:1059800009F10809F2D10BB182468B46049BC3B1E1
:10599000CBF30A52C2F16B03002B594611DD1F2BCA
:1059A00040F32481342BDEBFC2F14B024FF0FF33B2
:1059B00003FA02F24FF0000ACCBF4FF05C7B02EA20
:1059C000010B0022002350465946FBF785F80028BA
:1059D000A2D1079B009308992B463A46204601F036
:1059E0002DFE079000283FF41FAF059B9E1B069BD2
:1059F000002BB4BF334600230C93069B002523EAFB
:105A0000E37312932E46079B2046596801F06EFD02
:105A1000059000283FF40CAF079B1A69023203F18E
:105A20000C0192000C3001F053FD4BEC10AB1AAAA4
:105A300019A9204602F048F94BEC18AB1890002841
:105A40003FF4F6AE0121204601F092FE0646002802
:105A50003FF4EEAE199B0499002BABBF0C9A129A3F
:105A6000129FDDF83090ACBF03EB0209D71A1A9AE7
:105A7000A3EB01089044A14B08F1FF389845C2F10F
:105A8000360280F2C780A3EB08031F2BA2EB0302B0
:105A90004FF0010100F3B18001FA03F30D930023ED
:105AA000089309EB0208049BC14517441F444B4669
:105AB000A8BF4346BB42A8BF3B46002BC2BFA8EBD2
:105AC0000308FF1AA9EB03090C9B002B17DD3146D5
:105AD0001A46204601F00CFF064600283FF4A8AE07
