:020000040800F2
:1000000000000120B53A0008B1380008B7380008F0
:10001000BD380008C3380008C938000800000000D7
:10002000000000000000000000000000CF380008C1
:10003000DD38000800000000EB380008F93800083F
:10004000053B0008053B0008053B0008053B000890
:10005000053B0008053B0008053B0008053B000880
:10006000053B0008053B0008053B0008053B000870
:10007000053B0008053B0008053B0008053B000860
:10008000053B0008053B0008053B00080000000098
:10009000000000000000000000000000053B000818
:1000A000053B0008053B0008053B0008053B000830
:1000B000053B0008053B0008053B0008053B000820
:1000C000053B0008053B0008053B0008053B000810
:1000D000053B0008053B0008053B00080000000048
:1000E000053B0008053B0008053B00080000000038
:1000F000000000000000000000000000053B0008B8
:1001000000000000053B0008053B0008053B000817
:1001100000000000000000000000000000000000DF
:10012000053B0008053B0008053B0008053B0008AF
:10013000053B000800000000000000000000000077
:10014000000000000000000000000000053B000867
:10015000053B0008053B0008053B0008053B00087F
:10016000053B0008053B00080000000000000000FF
:10017000000000000000000000000000000000007F
:1001800000000000053B0008000000000000000027
:04019000053B000823
:1001A00010B5054C237833B9044B13B10448AFF3B1
:1001B00000800123237010BDE40100200000000036
:1001C00060AD000808B5034B1BB103490348AFF30A
:1001D000008008BD00000000E801002060AD0008BC
:1001E000034613F8012B002AFBD1181A0138704777
:1001F00001F0FF01102A2BDB10F0070F08D010F8D8
:10020000013B013A8B422DD010F0070F42B3F6D1DB
:10021000F0B441EA012141EA014122F007047FF0F4
:1002200000070023F0E80256083C85EA010586EA4B
:10023000010685FA47F5A3FA87F586FA47F6A5FA87
:1002400087F68EB9EED1F0BC01F0FF0102F0070293
:1002500032B110F8013B013A83EA010313B1F8D13E
:100260000020704701387047002D06BF354603381F
:10027000073815F0010F07D1013015F4807F02BF58
:10028000013015F4C03F0130F0BC0138704700BFA9
:1002900081F0004102E000BF83F0004330B54FEA37
:1002A00041044FEA430594EA050F08BF90EA020FA4
:1002B0001FBF54EA000C55EA020C7FEA645C7FEA37
:1002C000655C00F0E2804FEA5454D4EB5555B8BF5A
:1002D0006D420CDD2C4480EA020281EA030382EACB
:1002E000000083EA010180EA020281EA0303362D5D
:1002F00088BF30BD11F0004F4FEA01314FF4801C30
:100300004CEA113102D0404261EB410113F0004F41
:100310004FEA03334CEA133302D0524263EB4303F8
:1003200094EA050F00F0A780A4F10104D5F1200E96
:100330000DDB02FA0EFC22FA05F2801841F10001F1
:1003400003FA0EF2801843FA05F359410EE0A5F1C5
:1003500020050EF1200E012A03FA0EFC28BF4CF0F6
:10036000020C43FA05F3C01851EBE37101F00045AC
:1003700007D54FF0000EDCF1000C7EEB00006EEBB9
:100380000101B1F5801F1BD3B1F5001F0CD3490843
:100390005FEA30004FEA3C0C04F101044FEA44529A
:1003A00012F5800F80F09A80BCF1004F08BF5FEA21
:1003B000500C50F1000041EB045141EA050130BD01
:1003C0005FEA4C0C404141EB0101013C28BFB1F513
:1003D000801FE9D291F0000F04BF01460020B1FA5E
:1003E00081F308BF2033A3F10B03B3F120020CDA31
:1003F0000C3208DD02F1140CC2F10C0201FA0CF00F
:1004000021FA02F10CE002F11402D8BFC2F1200C73
:1004100001FA02F120FA0CFCDCBF41EA0C01904029
:10042000E41AA2BF01EB0451294330BD6FEA040472
:100430001F3C1CDA0C340EDC04F11404C4F120025D
:1004400020FA04F001FA02F340EA030021FA04F36F
:1004500045EA030130BDC4F10C04C4F1200220FAC6
:1004600002F001FA04F340EA0300294630BD21FA04
:1004700004F0294630BD94F0000F83F4801306BFCA
:1004800081F480110134013D4EE77FEA645C18BFBE
:100490007FEA655C29D094EA050F08BF90EA020F55
:1004A00005D054EA000C04BF1946104630BD91EA4D
:1004B000030F1EBF0021002030BD5FEA545C05D150
:1004C0004000494128BF41F0004130BD14F580048F
:1004D0003CBF01F5801130BD01F0004545F0FE4103
:1004E00041F470014FF0000030BD7FEA645C1ABF38
:1004F000194610467FEA655C1CBF0B46024650EA6F
:10050000013406BF52EA033591EA030F41F400219A
:1005100030BD00BF90F0000F04BF0021704730B520
:100520004FF4806404F132044FF000054FF00001F5
:1005300050E700BF90F0000F04BF0021704730B5B6
:100540004FF4806404F1320410F0004548BF40428B
:100550004FF000013EE700BF42004FEAE2014FEAE0
:1005600031014FEA02701FBF12F07F4393F07F4FBB
:1005700081F06051704732F07F4208BF704793F0BE
:100580007F4F04BF41F40021704730B54FF46074D1
:1005900001F0004521F000411CE700BF50EA0102D4
:1005A00008BF704730B54FF000050AE050EA01027D
:1005B00008BF704730B511F0004502D5404261EBED
:1005C00041014FF4806404F132045FEA915C3FF42E
:1005D000D8AE4FF003025FEADC0C18BF03325FEACB
:1005E000DC0C18BF033202EBDC02C2F1200300FA7C
:1005F00003FC20FA02F001FA03FE40EA0E0021FAA1
:1006000002F11444BDE600BF70B54FF0FF0C4CF48E
:10061000E06C1CEA11541DBF1CEA135594EA0C0F40
:1006200095EA0C0F00F0DEF82C4481EA030621EA7B
:100630004C5123EA4C5350EA013518BF52EA0335B6
:1006400041F4801143F4801338D0A0FB02CE4FF068
:100650000005E1FB02E506F00042E0FB03E54FF098
:100660000006E1FB03569CF0000F18BF4EF0010E90
:10067000A4F1FF04B6F5007F64F5407404D25FEA8C
:100680004E0E6D4146EB060642EAC62141EA55513F
:100690004FEAC52040EA5E504FEACE2EB4F1FD0C81
:1006A00088BFBCF5E06F1ED8BEF1004F08BF5FEAFF
:1006B000500E50F1000041EB045170BD06F00046B1
:1006C00046EA010140EA020081EA0301B4EB5C045E
:1006D000C2BFD4EB0C0541EA045170BD41F4801156
:1006E0004FF0000E013C00F3AB8014F1360FDEBF7B
:1006F000002001F0004170BDC4F10004203C35DA57
:100700000C341BDC04F11404C4F1200500FA05F3D9
:1007100020FA04F001FA05F240EA020001F000427A
:1007200021F0004110EBD37021FA04F642EB0601F0
:100730005EEA430E08BF20EAD37070BDC4F10C041A
:10074000C4F1200500FA04F320FA05F001FA04F2DE
:1007500040EA020001F0004110EBD37041F10001CA
:100760005EEA430E08BF20EAD37070BDC4F12005D5
:1007700000FA05F24EEA020E20FA04F301FA05F23D
:1007800043EA020321FA04F001F0004121FA04F2E5
:1007900020EA020000EBD3705EEA430E08BF20EAB5
:1007A000D37070BD94F0000F0FD101F000464000EF
:1007B00041EB010111F4801F08BF013CF7D041EA71
:1007C000060195F0000F18BF704703F00046520075
:1007D00043EB030313F4801F08BF013DF7D043EA46
:1007E0000603704794EA0C0F0CEA135518BF95EAFC
:1007F0000C0F0CD050EA410618BF52EA4306D1D183
:1008000081EA030101F000414FF0000070BD50EAA1
:10081000410606BF1046194652EA430619D094EA2B
:100820000C0F02D150EA013613D195EA0C0F05D115
:1008300052EA03361CBF104619460AD181EA030169
:1008400001F0004141F0FE4141F470014FF0000021
:1008500070BD41F0FE4141F4780170BD70B54FF0BC
:10086000FF0C4CF4E06C1CEA11541DBF1CEA13553C
:1008700094EA0C0F95EA0C0F00F0A7F8A4EB05041E
:1008800081EA030E52EA03354FEA013100F0888015
:100890004FEA03334FF0805545EA131343EA1263DE
:1008A0004FEA022245EA111545EA10654FEA002693
:1008B0000EF000419D4208BF964244F1FD0404F54C
:1008C000407402D25B084FEA3202B61A65EB0305A8
:1008D0005B084FEA32024FF480104FF4002CB6EB65
:1008E000020E75EB030E22BFB61A754640EA0C00E5
:1008F0005B084FEA3202B6EB020E75EB030E22BF25
:10090000B61A754640EA5C005B084FEA3202B6EB65
:10091000020E75EB030E22BFB61A754640EA9C0024
:100920005B084FEA3202B6EB020E75EB030E22BFF4
:10093000B61A754640EADC0055EA060E18D04FEAB2
:10094000051545EA16754FEA06164FEAC30343EA52
:1009500052734FEAC2025FEA1C1CC0D111F4801F1F
:100960000BD141EA00014FF000004FF0004CB6E718
:1009700011F4801F04BF01430020B4F1FD0C88BFB7
:10098000BCF5E06F3FF6AFAEB5EB030C04BFB6EBC2
:10099000020C5FEA500C50F1000041EB045170BDB5
:1009A0000EF0004E4EEA113114EB5C04C2BFD4EBE2
:1009B0000C0541EA045170BD41F480114FF0000E66
:1009C000013C90E645EA060E8DE60CEA135594EAE2
:1009D0000C0F08BF95EA0C0F3FF43BAF94EA0C0FE5
:1009E0000AD150EA01347FF434AF95EA0C0F7FF45A
:1009F00025AF104619462CE795EA0C0F06D152EAAE
:100A000003353FF4FDAE1046194622E750EA410691
:100A100018BF52EA43067FF4C5AE50EA41047FF4A2
:100A20000DAF52EA43057FF4EBAE12E74FF0FF3C07
:100A300006E000BF4FF0010C02E000BF4FF0010CD8
:100A40004DF804CD4FEA410C7FEA6C5C4FEA430C51
:100A500018BF7FEA6C5C1BD001B050EA410C0CBFA0
:100A600052EA430C91EA030F02BF90EA020F002002
:100A7000704710F1000F91EA030F58BF994208BF69
:100A800090422CBFD8176FEAE37040F00100704726
:100A90004FEA410C7FEA6C5C02D150EA013C07D17D
:100AA0004FEA430C7FEA6C5CD6D152EA033CD3D0C8
:100AB0005DF8040B704700BF8446104662468C46C2
:100AC0001946634600E000BF01B5FFF7B7FF0028F5
:100AD00048BF10F1000F01BD4DF808EDFFF7F4FF1E
:100AE0000CBF012000205DF808FB00BF4DF808EDA9
:100AF000FFF7EAFF34BF012000205DF808FB00BFCC
:100B00004DF808EDFFF7E0FF94BF012000205DF8ED
:100B100008FB00BF4DF808EDFFF7CEFF94BF0120A2
:100B200000205DF808FB00BF4DF808EDFFF7C4FF9B
:100B300034BF012000205DF808FB00BF4FEA410CE4
:100B40007FEA6C5C02D150EA013C0AD14FEA430CC7
:100B50007FEA6C5C02D152EA033C02D14FF0000004
:100B600070474FF0010070474FEA410212F5001242
:100B700015D211D56FF47873B3EB625212D94FEAE4
:100B8000C12343F0004343EA505311F0004F23FACE
:100B900002F018BF404270474FF00000704750EA23
:100BA000013005D111F0004008BF6FF000407047E0
:100BB0004FF00000704700BF4A0011D212F500123A
:100BC00011D20DD56FF47873B3EB62520ED44FEAA5
:100BD000C12343F0004343EA505323FA02F0704725
:100BE0004FF00000704750EA013002D14FF0FF3063
:100BF00070474FF0000070474FEA4102B2F1E04306
:100C000024BFB3F5001CDCF1FE5C0DD901F0004CF3
:100C10004FEAC0024CEA5070B2F1004F40EB830043
:100C200008BF20F00100704711F0804F21D113F16F
:100C30003872BCBF01F00040704741F480114FEAA8
:100C40005252C2F11802C2F1200C10FA0CF320FA31
:100C500002F018BF40F001004FEAC1234FEAD3234E
:100C600003FA0CFC40EA0C0023FA02F34FEA4303B8
:100C7000CCE77FEA625307D150EA01331EBF4FF041
:100C8000FE4040F44000704701F0004040F0FE405C
:100C900040F40000704700BF7BB972B90029BEBFA5
:100CA00000204FF0004106E008BF00281CBF6FF095
:100CB00000414FF0FF3000F0F5B9ADF1080C6DE9DF
:100CC00004CE002909DB002B1ADB00F083F8DDF8E5
:100CD00004E0DDE9022304B07047404261EB4101CA
:100CE000002B1BDB00F076F8DDF804E0DDE90223E1
:100CF00004B0404261EB4101524263EB4303704751
:100D0000524263EB430300F065F8DDF804E0DDE9EF
:100D1000022304B0404261EB41017047524263EB51
:100D2000430300F057F8DDF804E0DDE9022304B0E6
:100D3000524263EB4303704753B94AB9002908BFD5
:100D400000281CBF4FF0FF314FF0FF3000F0AAB970
:100D5000ADF1080C6DE904CE00F03CF8DDF804E0DC
:100D6000DDE9022304B0704738B5002200230446B1
:100D70000D46FFF7BBFE28B920462946BDE838409E
:100D800000F00AB8204605F1004100F005F84042A5
:100D900061EB410138BD00BFD0B50C4B00220646C7
:100DA0000F46FFF731FCFFF707FF0446FFF7B2FBE2
:100DB000074B0022FFF728FC02460B463046394617
:100DC000FFF76AFAFFF7F8FE2146D0BD0000F03DBC
:100DD0000000F0412DE9F047089D04468E46002BA7
:100DE0004DD18A42944669D9B2FA82F252B101FADF
:100DF00002F3C2F1200120FA01F10CFA02FC41EAEF
:100E0000030E94404FEA1C48210CBEFBF8F61FFA73
:100E10008CF708FB16E341EA034306FB07F199420E
:100E20000AD91CEB030306F1FF3080F01F819942C1
:100E300040F21C81023E63445B1AA4B2B3FBF8F09B
:100E400008FB103344EA034400FB07F7A7420AD922
:100E50001CEB040400F1FF3380F00A81A74240F24A
:100E600007816444023840EA0640E41B00261DB1B5
:100E7000D4400023C5E900433146BDE8F0878B42EA
:100E800009D9002D00F0EF800026C5E900013046A9
:100E90003146BDE8F087B3FA83F6002E4AD18B4283
:100EA00002D3824200F2F980841A61EB030301202D
:100EB0009E46002DE0D0C5E9004EDDE702B9FFDE19
:100EC000B2FA82F2002A40F09280A1EB0C014FEAC4
:100ED0001C471FFA8CFE0126200CB1FBF7F307FB21
:100EE000131140EA01410EFB03F0884208D91CEBC4
:100EF000010103F1FF3802D2884200F2CB80434661
:100F0000091AA4B2B1FBF7F007FB101144EA01443F
:100F10000EFB00FEA64508D91CEB040400F1FF31CE
:100F200002D2A64500F2BB800846A4EB0E0440EABC
:100F300003409CE7C6F12007B34022FA07FC4CEAC5
:100F4000030C20FA07F401FA06F31C43F9404FEAB8
:100F50001C4900FA06F3B1FBF9F8200C1FFA8CFECD
:100F600009FB181140EA014108FB0EF0884202FA21
:100F700006F20BD91CEB010108F1FF3A80F08880E2
:100F8000884240F28580A8F102086144091AA4B29F
:100F9000B1FBF9F009FB101144EA014100FB0EFE20
:100FA0008E4508D91CEB010100F1FF346CD28E454F
:100FB0006AD90238614440EA0840A0FB0294A1EBE0
:100FC0000E01A142C846A64656D353D05DB1B3EB3D
:100FD000080261EB0E0101FA07F722FA06F3F1406D
:100FE0001F43C5E9007100263146BDE8F087C2F114
:100FF0002003D8400CFA02FC21FA03F3914001438C
:101000004FEA1C471FFA8CFEB3FBF7F007FB1036C4
:101010000B0C43EA064300FB0EF69E4204FA02F470
:1010200008D91CEB030300F1FF382FD29E422DD9C3
:10103000023863449B1B89B2B3FBF7F607FB1633F8
:1010400041EA034106FB0EF38B4208D91CEB010178
:1010500006F1FF3816D28B4214D9023E6144C91AF8
:1010600046EA004638E72E46284605E70646E3E608
:101070001846F8E64B45A9D2B9EB020864EB0C0E12
:101080000138A3E74646EAE7204694E74046D1E721
:10109000D0467BE7023B614432E7304609E76444CF
:1010A000023842E7704700BF80B500AF0022102130
:1010B000024803F029F800BF80BD00BF00000240D5
:1010C00080B588B004AF0346FB800B467B711346A6
:1010D0003B710023FB737B799AB2F9884FF480331C
:1010E0000293012301933B1D00930123064803F063
:1010F00067FA0346FB73FB7B002B01D0FFF7D4FF9D
:1011000000BF1037BD4680BD5802002080B588B0B2
:1011100004AF03460A46FB8013467B710023FB7332
:101120000023BB737B799AB2F9884FF48033029322
:101130000123019307F10E0300930123074803F0F5
:1011400039FB0346FB73FB7B002B01D0FFF7ACFFA1
:10115000BB7B18461037BD4680BD00BF580200203B
:1011600080B588B004AF03463A60FB800B467B71C4
:101170000023FB737B799AB2F9884FF48033029392
:10118000022301933B6800930123074803F012FBFD
:101190000346FB73FB7B002B01D0FFF785FF00BFED
:1011A0001037BD4680BD00BF5802002080B588B012
:1011B00004AF03463A60FB800B467B710023FB7350
:1011C0007B799AB2F9884FF4803302930323019319
:1011D0003B6800930123074803F0ECFA0346FB73D6
:1011E000FB7B002B01D0FFF75FFF00BF1037BD4630
:1011F00080BD00BF5802002080B582B000AF03461A
:101200000A46FB711346BB71BA79FB791946EC208B
:10121000FFF756FF00BF0837BD4680BD80B584B0DC
:1012200000AF0346FB71FB791946EC20FFF76EFF18
:101230000346FB73FB7B18461037BD4680BD80B567
:1012400082B000AF03463960FB71FB793A681946FA
:10125000EC20FFF785FF00BF0837BD4680BD80B595
:1012600082B000AF03463960FB71FB793A681946DA
:10127000EC20FFF775FF00BF0837BD4680BD80B585
:1012800082B000AF03463960FB71FB793A681946BA
:10129000EC20FFF765FF3B681B881B0A9BB21AB264
:1012A0003B681B881B021BB213431BB29AB23B68FC
:1012B0001A8000BF0837BD4680BD80B582B000AF40
:1012C00003463960FB71FB793A681946EC20FFF759
:1012D0006DFF3B681B681B0CDAB23B681B6803F4AC
:1012E0007F431A433B681B681B0403F47F031343CB
:1012F00023F07F423B681A6000BF0837BD4680BDBF
:1013000080B582B000AFF320FFF788FF034603F0FB
:101310000903FB71FB7918460837BD4680BD000004
:1013200098B500AF37498820FFF789FF36498A20F2
:10133000FFF795FF35498C20FFF791FF34498E2048
:10134000FFF77DFF33499020FFF789FF3249922054
:10135000FFF785FF31499420FFF781FF3049962040
:10136000FFF77DFF2F499820FFF779FF2E499A203C
:10137000FFF775FF2D499C20FFF771FF2C499E2038
:10138000FFF76DFFA120FFF749FF03461A461D4BEB
:101390001A762849E120FFF762FFE320FFF73EFFBE
:1013A00003461A46174B1A77E420FFF737FF034628
:1013B0001B011CB2E520FFF731FF03461BB203F00F
:1013C0000F031BB223431AB20E4BDA83E620FFF75A
:1013D00025FF03461B011CB2E520FFF71FFF034654
:1013E0001B09DBB21BB223431AB2064B1A84E72057
:1013F000FFF714FF03465AB2024B83F8222000BFC6
:1014000098BD00BF0002002002020020040200205C
:1014100006020020080200200A0200200C02002020
:101420000E020020100200201202002014020020F0
:10143000160200201A02002080B584B000AF0346D7
:10144000FB71F520FFF7EAFE034603F01F03FB7371
:1014500097F9073023F01F035AB297F90F3013435F
:101460005BB2FB73FB7B1946F520FFF7C5FE00BF9F
:101470001037BD4680BD80B584B000AF0346FB7118
:10148000F520FFF7CBFE034623F01C03FB7397F90F
:10149000073003F01C035AB297F90F3013435BB2C5
:1014A000FB73FB7B1946F520FFF7A6FE00BF103744
:1014B000BD4680BD80B584B000AF0346FB71F4200B
:1014C000FFF7ACFE034603F01F03FB7397F90730E9
:1014D00023F01F035AB297F90F3013435BB2FB732B
:1014E000FB7B1946F420FFF787FE00BF1037BD468F
:1014F00080BD80B584B000AF0346FB71F420FFF7D8
:101500008DFE034623F01C03FB7397F9073003F0AD
:101510001C035AB297F90F3013435BB2FB73FB7B8A
:101520001946F420FFF768FE00BF1037BD4680BDA6
:1015300080B584B000AF0346FB71F220FFF76EFE6A
:10154000034623F00703FB7397F9073003F0070303
:101550005AB297F90F3013435BB2FB73FB7B19460A
:10156000F220FFF749FEF420FFF758FE0346FB7315
:10157000FB7B1946F420FFF73FFE00BF1037BD4646
:1015800080BD80B584B000AF0346FB71F420FFF747
:1015900045FE034623F00303FB7397F9073003F07E
:1015A00003035AB297F90F3013435BB2FB73FB7B13
:1015B0001946F420FFF720FE00BF1037BD4680BD5E
:1015C00080B584B000AF4FF00003FB603B46194686
:1015D000FA20FFF772FE3B681B093B603B68DB08A3
:1015E000204A128852009B1A1E4AB2F9022002FBBE
:1015F00003F3DB0ABB603B681B091A4A12889B1A7B
:101600003A68120917490988521A02FB03F31B0BA7
:10161000144AB2F9042002FB03F39B0B7B60BA6807
:101620007B681344104A13600F4B1A6813469B00E3
:10163000134480331B1207EE903AF8EEE77AC7EDB9
:10164000037A97ED037ADFED096AC7EE267AC7EDD4
:10165000037AFB6807EE903AB0EE670A1037BD4692
:1016600080BD00BF00020020240200200000C8420C
:101670002DE9B04FD0B000AF4FF00003C7F83C31B8
:10168000FFF79EFF07F58C731946F720FFF715FE4D
:10169000D7F818311B09C7F81831AC4B1B68DA179B
:1016A00098469146B8F5FA33BB6449F1FF33FB64C1
:1016B000D7E91223C7E94C23D7F83421D7F83031C2
:1016C00003FB02F1D7F83421D7F8303102FB03F3E2
:1016D000CA18D7F83031A3FB034553191D469C4B5C
:1016E000B3F910301BB2DA17C7F8C830C7F8CC20EE
:1016F000D7E93201034603FB05F20B4604FB03F373
:1017000013440246A4FB02AB5B449B46C7E94AABC9
:10171000C7E94AAB8E4BB3F90E301BB2DA17C7F8E4
:10172000C030C7F8C420D7F83031D7E930452A4651
:1017300002FB03F2D7F83431214601FB03F31A44CC
:10174000D7F830312146A3FB0113C7F814310B46FB
:10175000C7F81031D7F81431D318C7F814314FF047
:1017600000004FF00001D7E944452B4659042346B9
:1017700041EAD33123465804D7E94A2314183C647C
:101780004B417B64D7E91034C7E94A34704BB3F955
:101790000C301BB2DA17C7F8B830C7F8BC204FF0CE
:1017A00000004FF00001D7F8B830D9000020D7E989
:1017B0004A231418BC634B41FB63D7E90E34C7E9D5
:1017C0004A34D7F83421D7F8303103FB02F1D7F887
:1017D0003421D7F8303102FB03F3CA18D7F830317F
:1017E000A3FB0313C7F80C310B46C7F80831D7F831
:1017F0000C31D318C7F80C31554BB3F90A301BB272
:10180000DA17C7F8B030C7F8B420D7E942452B46FD
:10181000D7E92C89424602FB03F24B46214601FBE5
:1018200003F3134422464146A2FB0112C7F80421E8
:101830000A46C7F80021D7F804211344C7F8043139
:101840004FF000004FF00001D7E940452346180A49
:101850002B4640EA03602B4619123D4BB3F9083082
:101860001BB2DA17C7F8A830C7F8AC20D7F8303168
:10187000D7E92A894A4602FB03F2D7F834314446B5
:1018800004FB03F31A44D7F830314446A3FB044366
:10189000C7F8FC302346C7F8F830D7F8FC30D31827
:1018A000C7F8FC304FF000024FF00003D7E93E8943
:1018B0004C462303444643EA145344462203841807
:1018C0003C6341EB03037B63D7E90C34C7E94C3439
:1018D000D7E94C2303F50041C7F8A410C7F8A020AE
:1018E0001B4BDB889BB20022C7F89830C7F89C20BE
:1018F000D7E928452B46D7E92689424602FB03F261
:101900004B46214601FB03F3134422464146A2FB0A
:101910000112C7F8F4200A46C7F8F020D7F8F420DF
:101920001344C7F8F4304FF000024FF00003D7E93A
:101930003C4529464A102946CB17C7E94C23D7E92D
:101940004C23134306D14FF0000394E124020020FE
:1019500000020020D7F81831C3F580130022BB62C3
:10196000FA62D7E90A34C7E94834D7F820315B086E
:10197000C7F89430D7F82031DB07C7F89030D7E9A3
:101980004A23D7E924452146891AC7F888102946F1
:1019900061EB0303C7F88C30D7E9224522462B467A
:1019A000911839625B417B62D7E9082321465118BF
:1019B000B96129464B41FB614FF000024FF0000333
:1019C000D7E9068949468B01414643EA916341467E
:1019D0008A01414689183961494643EB0101796121
:1019E0004FF000024FF00003D7E9048949468B000D
:1019F000414643EA917341468A0010461946034620
:101A000022469B18BB600B462A4642EB0303FB6051
:101A10004FF000024FF00003D7E9028949468B00DE
:101A2000414643EA917341468A00104619460346EF
:101A300022469B18C7F880302B460A4642EB030328
:101A4000C7F88430D7E94C23D7E92001FFF724F900
:101A500002460B46C7E948238B4BB3F916301BB23D
:101A6000DA17BB67FA67D7E948234FF000004FF059
:101A70000001500B40EAC3405913D7E91E452B46DD
:101A800000FB03F2234603FB01F313442246A2FBAF
:101A90000012C7F8EC200A46C7F8E820D7F8EC2077
:101AA0001344C7F8EC30D7E948234FF000004FF05B
:101AB0000001500B40EAC3405913D7E93A452B4681
:101AC00000FB03F2234603FB01F313442246A2FB6F
:101AD0000012C7F8E4200A46C7F8E020D7F8E4204F
:101AE0001344C7F8E4304FF000024FF00003D7E989
:101AF000384521464A0E294642EAC11229464B166C
:101B0000C7E94C23604BB3F914301BB2DA173B67BB
:101B10007A67D7F82031D7E91C452A4602FB03F241
:101B2000D7F82431214601FB03F31A44D7F82031BA
:101B30002146A3FB0113C7F8DC300B46C7F8D830A9
:101B4000D7F8DC30D318C7F8DC304FF000024FF084
:101B50000003D7E936452146CA0C294642EA4132FC
:101B60002946CB14C7E94A23D7E94801D7E94C23D2
:101B70008418BC6641EB0303FB66D7E94A23D7E927
:101B80001A45214689183966294643EB01017966D1
:101B90004FF000004FF00001D7E918452346180A1E
:101BA0002B4640EA03602B461912374BB3F912302B
:101BB0001BB2DA17BB65FA654FF000024FF0000365
:101BC000D7E916894C462301444643EA1473444638
:101BD000220184183C6041EB03037B60D7E90034A9
:101BE000C7E94834D7E948014FF000024FF000033D
:101BF000020A42EA01620B124FF47A7303FB02F409
:101C0000D7E9482302F0FF033B6500237B651F4BA8
:101C1000D7E914894A4603FB02F20023414601FB3F
:101C200003F31344194A4146A1FB0212C7F8D4201A
:101C30000A46C7F8D020D7F8D4201344C7F8D430C8
:101C4000134A4FF00003D7E93401FFF725F80246A5
:101C50000B4613462344C7F81C31D7F81C3107EE56
:101C6000903AB8EE677ADFED0B6AC7EE267AC7EDD9
:101C70004F7AD7F83C3107EE903AB0EE670A07F595
:101C8000A077BD46BDE8B08F00020020E1F5050059
:101C9000A08601000000C84280B584B000AF4FF0BC
:101CA0000003FB60FFF78CFCBB1C1946FD20FFF70F
:101CB000E6FAB7F902309BB2BB60354B1B68A3F55F
:101CC00096337B60BB689A03324BB3F91E301B0519
:101CD000D21A304BB3F9203019467B6801FB03F36D
:101CE000D31A03F58043DB132A4A92F922201146C6
:101CF0007A6801FB02F292122649097F0846796848
:101D000000FB01F1C91201F5004101FB02F2921240
:101D100002F500121F49B1F91A1001FB02F202F597
:101D20000052921302FB03F37B607B68DB137A683B
:101D3000D21302FB03F3DB11164A127E02FB03F3FC
:101D40001B117A68D31A7B607B6823EAE3737B609C
:101D50007B68B3F1C85FA8BF4FF0C8537B607B6856
:101D60001B1307EE903AF8EEE77AC7ED037A97ED8A
:101D7000037ADFED096AC7EE267AC7ED037AFB68BE
:101D800007EE903AB0EE670A1037BD4680BD00BF3F
:101D900024020020000200200000804480B500AF33
:101DA000B621E020FFF728FA00BFFFF7A9FA0346A3
:101DB00003F00103002BF8D1FFF7B2FAA020FFF7E0
:101DC0003BFB0820FFF757FB6020FFF773FB082061
:101DD000FFF78FFB0120FFF7ABFB0320FFF7D1FBE1
:101DE00000BF80BD80B590B000AF354A07F1380321
:101DF00092E8030083E80300324A07F1300392E8D7
:101E0000030083E80300304A07F1280392E8030047
:101E100083E803002D4A07F1200392E8030083E8DA
:101E200003002B4A07F1180392E8030083E803003C
:101E3000284A07F1100392E8030083E80300264ACA
:101E400007F1080392E8030083E80300234A3B46B6
:101E500092E8030083E8030007F1380301211846E4
:101E600001F084F907F130030221184601F07EF9F0
:101E700007F128030321184601F078F907F1200340
:101E80000421184601F072F907F1180305211846DC
:101E900001F06CF907F110030621184601F066F90C
:101EA00007F108030721184601F060F93B460821B5
:101EB000184601F05BF900BF4037BD4680BD00BF4A
:101EC00078AD000880AD000888AD000890AD00082E
:101ED00098AD0008A0AD0008A8AD0008B0AD00089E
:101EE00080B582B000AF03460A46FB711346BB7152
:101EF000BA79FB791146184601F0DAF8012001F0B1
:101F000095F8FB790133DBB2BA791146184601F036
:101F1000CFF8022001F08AF8FB790233DBB2BA79FC
:101F20001146184601F0C4F8012001F07FF8BB7992
:101F30000133DAB2FB791146184601F0B9F80120F5
:101F400001F074F8FB790133DBB20121184601F08E
:101F5000AFF8042001F06AF8FB790233DAB2BB79FA
:101F60000133DBB21946104601F0A2F8012001F05E
:101F70005DF800BF0837BD4680BD80B582B000AFB8
:101F800003460A46FB711346BB71BA79FB791146C9
:101F9000184601F08DF8062001F048F8FB7901336E
:101FA000DBB2BA791146184601F082F8012001F03F
:101FB0003DF8FB790233DBB2BA791146184601F0DD
:101FC00077F8062001F032F8BB790133DAB2FB79F9
:101FD0001146184601F06CF8062001F027F8FB794D
:101FE0000133DBB20121184601F062F8012001F053
:101FF0001DF8FB790233DAB2BB790133DBB2194643
:10200000104601F055F8062001F010F800BF08371F
:10201000BD4680BD80B582B000AF03460A46FB7165
:102020001346BB71BA79FB791146184601F040F8A6
:10203000032000F0FBFFFB790133DBB2BA791146D4
:10204000184601F035F8032000F0F0FFFB79023369
:10205000DBB2BA791146184601F02AF8012000F0E7
:10206000E5FFBB790133DAB2FB791146184601F07E
:102070001FF8012000F0DAFFFB790133DBB2012108
:10208000184601F015F8052000F0D0FFFB79023367
:10209000DAB2BB790133DBB21946104601F008F819
:1020A000052000F0C3FF00BF0837BD4680BD80B5E6
:1020B00082B000AF03460A46FB711346BB71BA7982
:1020C000FB791146184600F0F3FF032000F0AEFF45
:1020D000FB790133DBB2BA791146184600F0E8FF0C
:1020E000032000F0A3FFFB790233DBB2BA7911467B
:1020F000184600F0DDFF012000F098FFBB790133A6
:10210000DAB2FB791146184600F0D2FF052000F044
:102110008DFFFB790133DBB20121184600F0C8FFC7
:10212000052000F083FFFB790233DAB2BB7901337B
:10213000DBB21946104600F0BBFF012000F076FF2D
:1021400000BF0837BD4680BD80B582B000AF0346F2
:102150000A46FB711346BB71BA79FB7911461846E2
:1021600000F0A6FF012000F061FFFB790133DBB234
:10217000BA791146184600F09BFF072000F056FF81
:10218000FB790233DBB2BA791146184600F090FFB2
:10219000012000F04BFFBB790133DAB2FB79114625
:1021A000184600F085FF082000F040FFFB7901335E
:1021B000DBB20121184600F07BFF082000F036FF5B
:1021C000FB790233DAB2BB790133DBB21946104630
:1021D00000F06EFF012000F029FF00BF0837BD4668
:1021E00080BD80B582B000AF03460A46FB7113463E
:1021F000BB71BA79FB791146184600F059FF0120EE
:1022000000F014FFFB790133DBB2BA7911461846AE
:1022100000F04EFF032000F009FFFB790233DBB230
:10222000BA791146184600F043FF032000F0FEFE85
:10223000BB790133DAB2FB791146184600F038FF5A
:10224000052000F0F3FEFB790133DBB201211846D3
:1022500000F02EFF052000F0E9FEFB790233DAB230
:10226000BB790133DBB21946104600F021FF012093
:1022700000F0DCFE00BF0837BD4680BD80B582B0EF
:1022800000AF03460A46FB711346BB71BA79FB796E
:102290001146184600F00CFF012000F0C7FEFB7944
:1022A0000133DBB2BA791146184600F001FF032072
:1022B00000F0BCFEFB790233DBB2BA791146184656
:1022C00000F0F6FE032000F0B1FEBB790133DAB274
:1022D000FB791146184600F0EBFE012000F0A6FE47
:1022E000FB790133DBB20121184600F0E1FE052045
:1022F00000F09CFEFB790233DAB2BB790133DBB22A
:102300001946104600F0D4FE012000F08FFE00BFF9
:102310000837BD4680BD80B582B000AF03460A468F
:10232000FB711346BB71BA79FB791146184600F070
:10233000BFFE022000F07AFEFB790133DBB2BA79EE
:102340001146184600F0B4FE022000F06FFEFB7943
:102350000233DBB2BA791146184600F0A9FE01201B
:1023600000F064FEBB790133DAB2FB7911461846FE
:1023700000F09EFE062000F059FEFB790133DBB22F
:102380000121184600F094FE012000F04FFEFB7979
:102390000233DAB2BB790133DBB21946104600F0E2
:1023A00087FE062000F042FE00BF0837BD4680BD14
:1023B00080B582B000AF03460A46FB711346BB717D
:1023C000BA79FB791146184600F072FE012000F040
:1023D0002DFEFB790133DBB2BA791146184600F0C5
:1023E00067FE032000F022FEFB790233DBB2BA79EC
:1023F0001146184600F05CFE012000F017FEBB7984
:102400000133DAB2FB791146184600F051FE012083
:1024100000F00CFEFB790133DBB20121184600F01D
:1024200047FE052000F002FEFB790233DAB2BB79E9
:102430000133DBB21946104600F03AFE012000F0ED
:10244000F5FD00BF0837BD4680BD80B582B000AF46
:1024500003460A46FB711346BB71BA79FB791146F4
:10246000184600F025FE012000F0E0FDFB79013365
:10247000DBB2BA791146184600F01AFE032000F0CC
:10248000D5FDFB790233DBB2BA791146184600F06C
:102490000FFE012000F0CAFDBB790133DAB2FB79EF
:1024A0001146184600F004FE052000F0BFFDFB7940
:1024B0000133DAB2BB790133DBB21946104600F0C2
:1024C000F7FD052000F0B2FDFB790233DAB2BB79EB
:1024D0000133DBB21946104600F0EAFD012000F09E
:1024E000A5FD00BF0837BD4680BD80B582B000AFF6
:1024F00003460A46FB711346BB71BA79FB79114654
:10250000184600F0D5FD062000F090FDBB790133A0
:10251000DAB2FB791146184600F0CAFD062000F039
:1025200085FD00BF0837BD4680BD000080B582B084
:1025300000AF0346FB71FB79092B1CD8904B1B782D
:10254000904A127811461846FFF7CFFF8C4B1B7844
:102550000133DBB28B4A127811461846FFF7C5FFEC
:10256000874B1B780233DBB2864A12781146184635
:10257000FFF7BBFF19E0FB790A3BDBB2092B07D859
:102580007F4B1B787F4A127811461846FFF7F5FCFF
:10259000FB79143BDBB2092B07D8794B1B78794ABE
:1025A000127811461846FFF735FDFA79764BA3FBF2
:1025B0000213D9080B469B000B445B00D31ADBB215
:1025C000002B09D16E4B1B780433DBB26D4A1278B5
:1025D00011461846FFF784FCFA796B4BA3FB0213F4
:1025E000D9080B469B000B445B00D31ADBB2012BCE
:1025F00009D1634B1B780433DBB2624A127811466F
:102600001846FFF7BAFCFA795F4BA3FB0213D9080F
:102610000B469B000B445B00D31ADBB2022B09D1A3
:10262000574B1B780433DBB2564A127811461846D2
:10263000FFF7F0FCFA79544BA3FB0213D9080B46C1
:102640009B000B445B00D31ADBB2032B09D14C4B2C
:102650001B780433DBB24B4A127811461846FFF759
:1026600026FDFA79484BA3FB0213D9080B469B00C1
:102670000B445B00D31ADBB2042B09D1404B1B780F
:102680000433DBB23F4A127811461846FFF75CFD6F
:10269000FA793D4BA3FB0213D9080B469B000B4470
:1026A0005B00D31ADBB2052B09D1354B1B78043301
:1026B000DBB2344A127811461846FFF792FDFA79D8
:1026C000314BA3FB0213D9080B469B000B445B0064
:1026D000D31ADBB2062B09D1294B1B780433DBB2AA
:1026E000284A127811461846FFF7C8FDFA79264B9A
:1026F000A3FB0213D9080B469B000B445B00D31AC3
:10270000DBB2072B09D11E4B1B780433DBB21D4A09
:10271000127811461846FFF7FEFDFA791A4BA3FB13
:102720000213D9080B469B000B445B00D31ADBB2A3
:10273000082B09D1124B1B780433DBB2114A1278F3
:1027400011461846FFF734FEFA790F4BA3FB02132C
:10275000D9080B469B000B445B00D31ADBB2092B54
:1027600009D1074B1B780433DBB2064A12781146B5
:102770001846FFF76AFE00BF0837BD4680BD00BFA0
:102780002802002029020020CDCCCCCC80B582B01C
:1027900000AF0346FB71FB79092B0AD89F4B1B78CE
:1027A0000833DBB29E4A127811461846FFF798FBB1
:1027B0004AE0FB790A3BDBB2092B09D8974B1B781F
:1027C0000833DBB2964A127811461846FFF7D5FB5C
:1027D000FB79143BDBB2092B09D8904B1B780833EB
:1027E000DBB28F4A127811461846FFF713FCFB79CB
:1027F0001E3BDBB2092B09D8884B1B780833DBB2B0
:10280000874A127811461846FFF751FCFB79283B9E
:10281000DBB2092B09D8814B1B780833DBB2804A25
:10282000127811461846FFF78FFCFB79323BDBB27A
:10283000092B09D8794B1B780833DBB2784A127818
:1028400011461846FFF7CDFCFA79764BA3FB02132D
:10285000D9080B469B000B445B00D31ADBB2002B5C
:1028600009D16E4B1B780C33DBB26D4A12781146DE
:102870001846FFF735FBFA796A4BA3FB0213D90818
:102880000B469B000B445B00D31ADBB2012B09D132
:10289000624B1B780C33DBB2614A12781146184642
:1028A000FFF76BFBFA795F4BA3FB0213D9080B46CA
:1028B0009B000B445B00D31ADBB2022B09D1574BB0
:1028C0001B780C33DBB2564A127811461846FFF7D4
:1028D000A1FBFA79534BA3FB0213D9080B469B00CB
:1028E0000B445B00D31ADBB2032B09D14B4B1B7893
:1028F0000C33DBB24A4A127811461846FFF7D7FB71
:10290000FA79484BA3FB0213D9080B469B000B44F2
:102910005B00D31ADBB2042B09D1404B1B780C337C
:10292000DBB23F4A127811461846FFF70DFCFA79E0
:102930003C4BA3FB0213D9080B469B000B445B00E6
:10294000D31ADBB2052B09D1344B1B780C33DBB225
:10295000334A127811461846FFF743FCFA79314B97
:10296000A3FB0213D9080B469B000B445B00D31A50
:10297000DBB2062B09D1294B1B780C33DBB2284A7A
:10298000127811461846FFF779FCFA79254BA3FB1C
:102990000213D9080B469B000B445B00D31ADBB231
:1029A000072B09D11D4B1B780C33DBB21C4A127864
:1029B00011461846FFF7AFFCFA791A4BA3FB021336
:1029C000D9080B469B000B445B00D31ADBB2082BE3
:1029D00009D1124B1B780C33DBB2114A1278114625
:1029E0001846FFF7E5FCFA790E4BA3FB0213D90852
:1029F0000B469B000B445B00D31ADBB2092B09D1B9
:102A0000064B1B780C33DBB2054A12781146184688
:102A1000FFF71BFD00BF0837BD4680BD2802002020
:102A200029020020CDCCCCCC80B582B000AF0346CB
:102A30000A46FB711346BB71FB790733DBB2BA79E7
:102A40001146184600F034FB042000F0EFFAFB7941
:102A50000733DAB2BB790133DBB21946104600F016
:102A600027FB022000F0E2FA4FF4FA7001F0BEF802
:102A7000FB790733DBB2BA7911461846FFF735FD0B
:102A80004FF4FA7001F0B2F800BF0837BD4680BDC0
:102A900080B582B000AF0346FB71FB79092B24D8C7
:102AA0001E4B1B780F33DAB21D4B1B780133DBB2A0
:102AB0001946104600F0FCFA062000F0B7FA174B52
:102AC0001B781033DAB2164B1B780133DBB2194690
:102AD000104600F0EDFAFB791A461249124804F04C
:102AE0004FFB114800F0C7FA13E0FB79092B10D90E
:102AF0000A4B1B780F33DBB20121184600F0D8FADD
:102B0000FB791A460749084804F03AFB064800F0EA
:102B1000B2FA00BF0837BD4680BD00BF28020020C2
:102B200029020020B8AD00082C02002080B582B038
:102B300000AF0346FB71FB79092B20D81B4B1B7898
:102B40000F33DBB21A4A12781146184600F0B0FA79
:102B5000062000F06BFA154B1B781033DBB2144AD9
:102B600012781146184600F0A3FAFB791A4611496B
:102B7000114804F005FB104800F07DFA12E00B4B01
:102B80001B780F33DBB20A4A12781146184600F060
:102B90008FFAFB791A460749074804F0F1FA06480C
:102BA00000F069FA00BF0837BD4680BD280200204A
:102BB00029020020BCAD00082C02002080B582B0A4
:102BC00000AF0346FB71FB79092B20D81B4B1B7808
:102BD0001233DBB21A4A12781146184600F068FA2E
:102BE000062000F023FA154B1B781233DBB2144A8F
:102BF00012781146184600F05BFAFB791A46114923
:102C0000114804F0BDFA104800F035FA12E00B4B01
:102C10001B781233DBB20A4A12781146184600F0CC
:102C200047FAFB791A460949074804F0A9FA064809
:102C300000F021FA00BF0837BD4680BD2802002001
:102C400029020020C0AD00082C020020B8AD000809
:102C500080B592B000AF0346FB713C4A07F14403D4
:102C60001268114619800233120C1A70384A07F1A3
:102C700040031268114619800233120C1A70354A4B
:102C800007F13C031268114619800233120C1A70C6
:102C9000314A07F138031268114619800233120CC9
:102CA0001A702E4A07F13403126811461980023354
:102CB000120C1A702A4A07F1300312681146198063
:102CC0000233120C1A70274A07F12C0312681146BE
:102CD00019800233120C1A70234A07F12803126874
:102CE000114619800233120C1A7007F14403BB60BD
:102CF00007F14003FB6007F13C033B6107F1380338
:102D00007B6107F13403BB6107F13003FB6107F11D
:102D10002C033B6207F128037B62144B1B781233B0
:102D2000DAB2134B1B780133DBB21946104600F0C0
:102D3000BFF9FB799B0048333B4453F8403C1846AD
:102D400000F099F900BF4837BD4680BDC4AD00080A
:102D5000C8AD0008CCAD0008D0AD0008D4AD000867
:102D6000D8AD0008DCAD0008E0AD00082802002066
:102D70002902002080B584B002AF78601D4B1B781B
:102D8000002B07D07B681B7843F00803DAB27B681E
:102D90001A7006E07B681B7823F00803DAB27B68C0
:102DA0001A707B681B7843F00403DAB27B681A70F0
:102DB0000A23009301237A684E210F4801F002FB99
:102DC000052000F013FF7B681B7823F00403DAB2C0
:102DD0007B681A700A23009301237A684E21064803
:102DE00001F0F0FA052000F001FF00BF0837BD46F2
:102DF00080BD00BF000000205802002080B584B0D4
:102E000002AF0346FB71FA1D0A23009301234E21F2
:102E1000034801F0D7FA00BF0837BD4680BD00BFA8
:102E20005802002080B582B000AF0346FB71FB79E9
:102E30001B01FB71114B1B7843F00403DAB20F4BFB
:102E40001A700E4B1B781846FFF7D8FF0B4B1A78F9
:102E5000FB791343DBB21846FFF7D0FF074B1B7813
:102E600023F00403DAB2054B1A70044B1B781846A2
:102E7000FFF7C4FF00BF0837BD4680BD54020020E5
:102E800080B584B000AF03460A46FB711346BB71A0
:102E9000BB79002B0CD1154B1B7823F00103DAB260
:102EA000124B1A70114B1B781846FFF7A7FF0BE067
:102EB0000E4B1B7843F00103DAB20C4B1A700B4B2C
:102EC0001B781846FFF79AFF0023FB73FB791B0959
:102ED000FB73FB7B1846FFF7A5FFFB791846FFF74E
:102EE000A1FF00BF1037BD4680BD00BF54020020C7
:102EF00080B584B002AF78601A4B1B78002B07D0E6
:102F00007B681B7843F00803DAB27B681A7006E02E
:102F10007B681B7823F00803DAB27B681A707B6841
:102F20001B7843F00403DAB27B681A700A2300931B
:102F300001237A684E210C4801F044FA7B681B7823
:102F400023F00403DAB27B681A700A23009301238A
:102F50007A684E21044801F035FA00BF0837BD46B3
:102F600080BD00BF000000205802002080B582B064
:102F700000AF3023FB710F2000F038FEFB1D184618
:102F8000FFF7F8FE052000F031FEFB1D1846FFF7A5
:102F9000F1FE012000F02AFEFB1D1846FFF7EAFEB5
:102FA0002023FB71FB1D1846FFF7E4FE2023FB7175
:102FB000FB1D1846FFF7DEFE8023FB71FB1D184644
:102FC000FFF7D8FE0023FB71FB1D1846FFF7D2FE6A
:102FD0008023FB71FB1D1846FFF7CCFE0023FB711D
:102FE000FB1D1846FFF7C6FE1023FB71FB1D18469C
:102FF000FFF7C0FE0023FB71FB1D1846FFF7BAFE6A
:103000003023FB71FB1D1846FFF7B4FE0023FB7154
:10301000FB1D1846FFF7AEFEC023FB71FB1D1846D3
:10302000FFF7A8FE00BF0837BD4680BD80B584B05D
:1030300000AF0346FB7197F9073023F00F035BB233
:1030400043F009035BB2DBB2FB7307F10F031846D1
:10305000FFF74EFFFB791B015BB243F009035BB244
:10306000DBB2FB7307F10F031846FFF741FF00BF08
:103070001037BD4680BD80B584B000AF78600023B6
:10308000FB6009E0FB687A6813441B781846FFF779
:10309000CDFFFB680133FB607868FDF7A1F80246BD
:1030A000FB689A42EED800BF00BF1037BD4680BD16
:1030B00080B584B000AF03460A46FB711346BB716E
:1030C000BB79032B01D90323BB71FB79272B01D9D2
:1030D0002723FB71BB79002B01D1FB79FB73BB79F3
:1030E000012B02D1FB794033FB73BB79022B02D158
:1030F000FB791433FB73BB79032B02D1FB79543377
:10310000FB7397F90F3003F070035BB263F07F033A
:103110005BB2DBB2BB7307F10E031846FFF7E8FEA4
:10312000FB7B1B01DBB2BB7307F10E031846FFF7F5
:10313000DFFE00BF1037BD4680BD000080B483B005
:1031400000AF0346FB71FB79002B03D0064B012235
:103150001A7002E0044B00221A7000BF0C37BD4603
:103160005DF8047B704700BF0000002080B584B08C
:1031700000AF78600B46FB70FB78DB00DBB25BB224
:1031800043F040035BB2DBB200211846FFF778FE44
:103190000023FB730AE0FB7B7A6813441B78012150
:1031A0001846FFF76DFEFB7B0133FB73FB7B072BA0
:1031B000F1D900BF00BF1037BD4680BD80B582B0D9
:1031C00000AF0023FB71FB1D1846FFF7D3FD102352
:1031D000FB71FB1D1846FFF7CDFD00BF0837BD464C
:1031E00080BD000080B586B000AF4FF000037B616A
:1031F00000F08AFC00F098F900F074FA00F000FA90
:1032000000F02CFA32233F2B0DD03223303BDBB2BF
:103210001A46920013445B00DBB232221344DBB245
:10322000303BDBB200E06323B54A137032233F2BFF
:103230000DD03223303BDBB21A46920013445B00C0
:10324000DBB234221344DBB2303BDBB200E0632359
:10325000AB4A537032233F2B0DD03123303BDBB2CE
:103260001A46920013445B00DBB230221344DBB2F7
:10327000303BDBB200E06323A14A93700022A049F7
:10328000A04802F043FE4A233F2B12D020232F2BCD
:1032900008D92023303BDBB21A46920013445B006E
:1032A000DBB200E0002337221344DBB2303BDBB259
:1032B00000E06323944A93704A233F2B61D04A2352
:1032C0004A2B05D17523612B02D16C236E2B56D06E
:1032D0004A23462B51D04A234D2B05D17523612B10
:1032E00002D16C23722B46D04A23412B02D1752385
:1032F000702B3ED04A234D2B05D17523612B02D173
:103300006C23792B33D04A234A2B05D17523752B97
:1033100002D16C236E2B28D04A234A2B05D175236A
:10332000752B02D16C236C2B1DD04A23412B02D16B
:103330007523752B15D04A23532B10D04A234F2BBE
:103340000BD04A234E2B06D04A23442B01D10C2309
:1033500018E0632316E00B2314E00A2312E009238C
:1033600010E008230EE007230CE006230AE0052303
:1033700008E0042306E0032304E0022302E0012323
:1033800000E06323604A53705F4B04221A704A23A3
:103390003F2B0DD03223303BDBB21A469200134450
:1033A0005B00DBB232221344DBB2303BDBB200E025
:1033B0006323554AD37000225349524802F09EFEBF
:1033C000642000F013FCFFF7D1FDFEF7E7FCFEF7E9
:1033D00009FD0120FFF7B2FE00210020FFF768FE83
:1033E0004A48FFF748FE01210020FFF761FE4848E8
:1033F000FFF741FE4FF4FA7000F0F8FBFFF7DEFE36
:1034000000223F493F4802F01BFE00223E493D4852
:1034100002F0F8FEFEF7D4F887ED040AFEF728F96B
:1034200087ED030AFEF738FCF0EE407AFCEEE77A0F
:1034300017EE903A7B81324B1B787B72304B5B7876
:103440003B722F4B9B78FB712F4B1B78BB712E4B24
:103450005B787B712C4B9B783B7100210020FFF740
:10346000E3FA7B7A1846FFF761F83B7A1846FFF7D4
:103470008DF9FB791846FFF70BFB3B791846FFF7F0
:1034800055FB7B791846FFF799FBBB791846FFF788
:10349000DFFB3869FDF760F802460B461D491E4800
:1034A00003F06EFE02210020FFF702FE1A48FFF72C
:1034B000E2FDD7ED037A9FED197A67EE877AFCEE8D
:1034C000E77A17EE903A7B807B881A4614491248B7
:1034D00003F056FE03210020FFF7EAFD0E48FFF738
:1034E000CAFD7B891A460F490B4803F049FE0221A9
:1034F0000720FFF7DDFD0848FFF7BDFD80E700BFAF
:1035000030030020AC02002044030020E4AD00089A
:10351000F4AD000808AE0008CC020020CA9F443A6F
:1035200010AE000818AE000880B594B000AF07F1E7
:10353000200330220021184602F09AFF07F10C0305
:1035400000221A605A609A60DA601A610023BB6038
:10355000294B1B6C284A43F080531364264B1B6C89
:1035600003F08053BB60BB6800237B60234B1B6868
:1035700023F44043214A43F4004313601F4B1B686C
:1035800003F440437B607B6805233B624FF4803348
:103590007B620123BB620223BB634FF48003FB63A6
:1035A00019233B64A8237B640223BB640423FB64CC
:1035B00007F12003184601F001FF0346002B01D05C
:1035C00000F0D4F80F23FB6002233B6100237B61F2
:1035D0004FF48053BB610023FB6107F10C03022110
:1035E000184602F063F90346002B01D000F0BEF844
:1035F00000BF5037BD4680BD00380240007000401B
:1036000080B500AF124B134A1A60114B124A5A6030
:103610000F4B00229A600E4B0022DA600C4B4FF4E5
:1036200080421A610A4B00225A61094B00229A61BA
:10363000074B0022DA61064B00221A62044800F0B0
:103640007DFD0346002B01D000F090F800BF80BD47
:103650005802002000540040801A060080B500AFD8
:103660001C4B1D4A1A601B4B00225A60194B7F22CB
:103670009A60184BFF22DA60164B00221A61154B34
:1036800000225A61134B00229A61124802F0C8FBD3
:103690000346002B01D000F069F8104B00221A708D
:1036A0000E4B00225A700D4B00229A700B4B0022D9
:1036B000DA600A4B00221A61094B01221A70084B8A
:1036C00001225A70064B01229A70054B0022DA70D3
:1036D00000BF80BDAC020020002800403003002065
:1036E0004403002080B485B000AF0023FB601E4B74
:1036F0001B6B1D4A43F0040313631B4B1B6B03F04E
:103700000403FB60FB680023BB60174B1B6B164A6E
:1037100043F080031363144B1B6B03F08003BB6007
:10372000BB6800237B60104B1B6B0F4A43F0010307
:1037300013630D4B1B6B03F001037B607B6800235D
:103740003B60094B1B6B084A43F002031363064BB3
:103750001B6B03F002033B603B6800BF1437BD46A0
:103760005DF8047B704700BF0038024080B400AFB2
:1037700072B600BFFEE7000080B483B000AF002344
:103780007B60104B5B6C0F4A43F4804353640D4BDA
:103790005B6C03F480437B607B6800233B60094BD8
:1037A0001B6C084A43F080531364064B1B6C03F0F8
:1037B00080533B603B6800BF0C37BD465DF8047B1F
:1037C000704700BF0038024080B58AB000AF786013
:1037D00007F1140300221A605A609A60DA601A61D5
:1037E0007B681B68194A93422BD100233B61184B1D
:1037F0001B6B174A43F002031363154B1B6B03F05B
:1038000002033B613B69C0237B611223BB61002340
:10381000FB6103233B6204237B6207F11403194617
:103820000C4800F0EDFA0023FB60094B1B6C084AC2
:1038300043F400131364064B1B6C03F40013FB608A
:10384000FB6800BF2837BD4680BD00BF0054004064
:10385000003802400004024080B588B000AF7860B4
:1038600007F10C0300221A605A609A60DA601A614C
:103870007B681B680C4A934211D10223FB604FF412
:103880008073BB6107F10C03184602F0DBF90346B5
:10389000002B01D0FFF76AFF044B01221A6000BF22
:1038A0002037BD4680BD00BF002800403C0E474287
:1038B00080B400AFFEE780B400AFFEE780B400AF95
:1038C000FEE780B400AFFEE780B400AFFEE780B44F
:1038D00000AF00BFBD465DF8047B704780B400AF09
:1038E00000BFBD465DF8047B704780B400AF00BFE9
:1038F000BD465DF8047B704780B500AF00F056F917
:1039000000BF80BD80B400AF01231846BD465DF8FE
:10391000047B704780B582B000AF7860396002F0F8
:103920007DFD034616221A604FF0FF331846083714
:10393000BD4680BD80B582B000AF78604FF0FF31EA
:103940007868FFF7E7FFFEE780B586B000AFF86064
:10395000B9607A6000237B610AE0AFF30080014622
:10396000BB685A1CBA60CAB21A707B6901337B61AA
:103970007A697B689A42F0DB7B6818461837BD4647
:1039800080BD80B586B000AFF860B9607A60002372
:103990007B6109E0BB685A1CBA601B781846AFF31C
:1039A00000807B6901337B617A697B689A42F1DB35
:1039B0007B6818461837BD4680BD80B483B000AF21
:1039C00078604FF0FF3318460C37BD465DF8047B36
:1039D000704780B483B000AF786039603B684FF4C3
:1039E00000525A60002318460C37BD465DF8047B30
:1039F000704780B483B000AF7860012318460C375D
:103A0000BD465DF8047B704780B485B000AFF860B8
:103A1000B9607A60002318461437BD465DF8047B10
:103A20007047000080B586B000AF7860144A154B2F
:103A3000D31A7B617B693B61134B1B68002B02D15E
:103A4000114B124A1A60104B1A687B6813443A698A
:103A50009A4207D202F0E2FC03460C221A604FF0B1
:103A6000FF3309E0084B1B68FB60074B1A687B6853
:103A70001344054A1360FB6818461837BD4680BDDD
:103A80000000012000040000480300206003002023
:103A900080B400AF064BD3F88830054A43F4700376
:103AA000C2F8883000BFBD465DF8047B704700BF98
:103AB00000ED00E0DFF834D00D480E490E4A002337
:103AC00002E0D458C4500433C4188C42F9D30B4AD2
:103AD0000B4C002301E013600432A242FBD3FFF73A
:103AE000D7FF02F0A1FCFFF77DFB7047000001202B
:103AF00000000020E4010020ECB20008E4010020F6
:103B000060030020FEE7000080B500AF0E4B1B688D
:103B10000D4A43F4007313600B4B1B680A4A43F4CD
:103B200080631360084B1B68074A43F4807313607B
:103B3000032000F031F90F2000F008F8FFF71CFE19
:103B40000023184680BD00BF003C024080B582B013
:103B500000AF7860124B1A68124B1B7819464FF46D
:103B60007A73B3FBF1F3B2FBF3F3184600F03BF9C1
:103B70000346002B01D001230EE07B680F2B0AD8EF
:103B8000002279684FF0FF3000F011F9064A7B6897
:103B90001360002300E0012318460837BD4680BDAE
:103BA000040000200C0000200800002080B400AFBA
:103BB000064B1B781A46064B1B681344044A1360D5
:103BC00000BFBD465DF8047B704700BF0C000020BD
:103BD0004C03002080B400AF034B1B681846BD4661
:103BE0005DF8047B704700BF4C03002080B584B0B3
:103BF00000AF7860FFF7EEFFB8607B68FB60FB68A2
:103C0000B3F1FF3F05D00A4B1B781A46FB681344FB
:103C1000FB6000BFFFF7DEFF0246BB68D31AFA68FD
:103C20009A42F7D800BF00BF1037BD4680BD00BF25
:103C30000C00002080B485B000AF78607B6803F092
:103C40000703FB600C4BDB68BB60BA684FF6FF03F1
:103C50001340BB60FB681A02BB68134343F0BF63A9
:103C600043F40033BB60044ABB68D36000BF143721
:103C7000BD465DF8047B704700ED00E080B400AF06
:103C8000044BDB681B0A03F007031846BD465DF8CA
:103C9000047B704700ED00E080B483B000AF0346C2
:103CA0003960FB7197F90730002B0ADB3B68DAB209
:103CB0000C4997F907301201D2B20B4483F8002364
:103CC0000AE03B68DAB20849FB7903F00F03043BD2
:103CD0001201D2B20B441A7600BF0C37BD465DF814
:103CE000047B704700E100E000ED00E080B489B0A3
:103CF00000AFF860B9607A60FB6803F00703FB610E
:103D0000FB69C3F10703042B28BF0423BB61FB69D4
:103D10000433062B02D9FB69033B00E000237B61DF
:103D20004FF0FF32BB6902FA03F3DA43BB681A4073
:103D30007B699A404FF0FF317B6901FA03F3D94365
:103D40007B680B40134318462437BD465DF8047B5F
:103D50007047000080B582B000AF78607B68013B9F
:103D6000B3F1807F01D301230FE00A4A7B68013B56
:103D700053600F214FF0FF30FFF78EFF054B0022FD
:103D80009A60044B07221A60002318460837BD4684
:103D900080BD00BF10E000E080B582B000AF786069
:103DA0007868FFF747FF00BF0837BD4680BD80B584
:103DB00086B000AF0346B9607A60FB7300237B6175
:103DC000FFF75CFF78617A68B9687869FFF78EFF62
:103DD000024697F90F3011461846FFF75DFF00BF06
:103DE0001837BD4680BD80B582B000AF7860786876
:103DF000FFF7B0FF034618460837BD4680BD0000F8
:103E000080B489B000AF7860396000237B61002303
:103E10003B610023BB610023FB6159E10122FB6987
:103E200002FA03F37B613B681B687A6913403B61CC
:103E30003A697B699A4240F048813B685B6803F0CD
:103E40000303012B05D03B685B6803F00303022BDF
:103E500030D17B689B68BB61FB695B00032202FA7F
:103E600003F3DB43BA691340BB613B68DA68FB6963
:103E70005B0002FA03F3BA691343BB617B68BA695A
:103E80009A607B685B68BB610122FB6902FA03F3FD
:103E9000DB43BA691340BB613B685B681B0903F0F5
:103EA0000102FB6902FA03F3BA691343BB617B6841
:103EB000BA695A603B685B6803F00303032B17D0B1
:103EC0007B68DB68BB61FB695B00032202FA03F3DA
:103ED000DB43BA691340BB613B689A68FB695B00CE
:103EE00002FA03F3BA691343BB617B68BA69DA600B
:103EF0003B685B6803F00303022B23D1FB69DA08FC
:103F00007B68083253F82230BB61FB6903F007037A
:103F10009B000F2202FA03F3DB43BA691340BB6133
:103F20003B681A69FB6903F007039B0002FA03F37D
:103F3000BA691343BB61FB69DA087B680832B96967
:103F400043F822107B681B68BB61FB695B0003229E
:103F500002FA03F3DB43BA691340BB613B685B6859
:103F600003F00302FB695B0002FA03F3BA6913432F
:103F7000BB617B68BA691A603B685B6803F44033D5
:103F8000002B00F0A2800023FB60574B5B6C564A6D
:103F900043F480435364544B5B6C03F48043FB60F5
:103FA000FB68524AFB699B08023352F82330BB611D
:103FB000FB6903F003039B000F2202FA03F3DB43C8
:103FC000BA691340BB617B68494A934219D07B6848
:103FD000484A934213D07B68474A93420DD07B688E
:103FE000464A934207D07B68454A934201D1042355
:103FF00008E0072306E0032304E0022302E0012394
:1040000000E00023FA6902F0030292009340BA69CB
:104010001343BB613549FB699B080233BA6941F818
:104020002320384B9B68BB613B69DB43BA69134073
:10403000BB613B685B6803F48013002B03D0BA6953
:104040003B691343BB612F4ABB6993602D4BDB680F
:10405000BB613B69DB43BA691340BB613B685B688A
:1040600003F40013002B03D0BA693B691343BB610F
:10407000244ABB69D360234B5B68BB613B69DB436C
:10408000BA691340BB613B685B6803F40033002BE3
:1040900003D0BA693B691343BB611A4ABB695360D9
:1040A000184B1B68BB613B69DB43BA691340BB61BA
:1040B0003B685B6803F48033002B03D0BA693B692B
:1040C0001343BB610F4ABB691360FB690133FB619A
:1040D000FB690F2B7FF6A2AE00BF00BF2437BD46A1
:1040E0005DF8047B704700BF003802400038014093
:1040F000000002400004024000080240000C0240A0
:1041000000100240003C014080B483B000AF7860F2
:104110000B467B8013467B707B78002B03D07A881C
:104120007B689A6103E07B881A047B689A6100BF10
:104130000C37BD465DF8047B7047000080B584B045
:1041400000AF78607B68002B01D101232BE17B68F5
:1041500093F83D30DBB2002B06D17B68002283F858
:104160003C207868FFF730FB7B68242283F83D20F1
:104170007B681B681A687B681B6822F001021A6062
:104180007B681B681A687B681B6842F400421A60EF
:104190007B681B681A687B681B6822F400421A60FF
:1041A00001F03CFDF8607B685B68814A934207D868
:1041B000FB68804A934294BF01230023DBB206E0F0
:1041C000FB687D4A934294BF01230023DBB2002B9E
:1041D00001D00123E7E0FB68784AA2FB03239B0C94
:1041E000BB607B681B685B6823F03F017B681B68D2
:1041F000BA680A435A607B681B681B6A23F03F0158
:104200007B685B686A4A934202D8BB68013309E065
:10421000BB684FF4967202FB03F3694AA2FB0323C7
:104220009B0901337A6812680B4313627B681B6831
:10423000DB6923F44F4222F0FF027B685B685C4934
:104240008B4219D8FB68591E7B685B685B00B1FB29
:10425000F3F3591C40F6FC730B40002B0AD0FB68AB
:10426000591E7B685B685B00B1FBF3F30133C3F35A
:104270000B0351E004234FE07B689B68002B11D1B6
:10428000FB68581E7B6859680B465B000B44B0FB0B
:10429000F3F30133C3F30B03002B0CBF0123002303
:1042A000DBB212E0FB68581E7B6859680B469B0026
:1042B0000B4499000B44B0FBF3F30133C3F30B033E
:1042C000002B0CBF01230023DBB2002B01D0012304
:1042D00022E07B689B68002B0ED1FB68581E7B6830
:1042E00059680B465B000B44B0FBF3F30133C3F397
:1042F0000B0343F400430FE0FB68581E7B685968CA
:104300000B469B000B4499000B44B0FBF3F30133C5
:10431000C3F30B0343F44043796809681343CB614B
:104320007B681B681B6823F0C0017B68DA697B68C7
:104330001B6A1A437B681B680A431A607B681B6808
:104340009B6823F4034323F0FF037A6811697A68BA
:10435000D26811437A6812680B4393607B681B68CC
:10436000DB6823F0FF017B685A697B689B691A430D
:104370007B681B680A43DA607B681B681A687B6885
:104380001B6842F001021A607B6800221A647B6895
:10439000202283F83D207B6800221A637B6800227C
:1043A00083F83E20002318461037BD4680BD00BF6D
:1043B000A08601007F841E00FF083D0083DE1B43B2
:1043C000D34D621080B588B002AFF8607A601A46AB
:1043D0000B467B8113463B81FFF7FCFB7861FB6852
:1043E00093F83D30DBB2202B40F0E0807B690093F6
:1043F000192301227049F86800F002FE0346002BE1
:1044000001D00223D3E0FB6893F83C30012B01D1AB
:104410000223CCE0FB68012283F83C20FB681B6888
:104420001B6803F00103012B07D0FB681B681A68A7
:10443000FB681B6842F001021A60FB681B681A687F
:10444000FB681B6822F400621A60FB68212283F873
:104450003D20FB68102283F83E20FB6800221A648E
:10446000FB687A685A62FB683A895A85FB685B8DFB
:104470009AB2FB681A85FB68504ADA6279897B69CF
:104480003A6AF86800F0BCFB0346002B01D0012318
:104490008DE000233B61FB681B685B693B61FB6847
:1044A0001B689B693B613B6966E07A69396AF86819
:1044B00000F07CFE0346002B0DD0FB681B6C042B28
:1044C00007D1FB681B681A68FB681B6842F400721E
:1044D0001A6001236BE0FB685B6A1A78FB681B6853
:1044E0001A61FB685B6A5A1CFB685A62FB685B8D49
:1044F0009BB2013B9AB2FB685A85FB681B8D013B5E
:104500009AB2FB681A85FB681B685B6903F00403B9
:10451000042B1BD1FB681B8D002B17D0FB685B6A3B
:104520001A78FB681B681A61FB685B6A5A1CFB6897
:104530005A62FB685B8D9BB2013B9AB2FB685A855D
:10454000FB681B8D013B9AB2FB681A857A69396A50
:10455000F86800F06CFE0346002B0DD0FB681B6C66
:10456000042B07D1FB681B681A68FB681B6842F4C0
:1045700000721A6001231AE0FB681B8D002B94D196
:10458000FB681B681A68FB681B6842F400721A60BB
:10459000FB68202283F83D20FB68002283F83E2040
:1045A000FB68002283F83C20002300E00223184629
:1045B0001837BD4680BD00BF020010000000FFFF9D
:1045C00080B588B002AFF860084611461A46034627
:1045D0007B810B463B811346FB80FFF7FBFA78613A
:1045E000FB6893F83D30DBB2202B40F0D9807B692B
:1045F0000093192301226D49F86800F001FD03467C
:10460000002B01D00223CCE0FB6893F83C30012B57
:1046100001D10223C5E0FB68012283F83C20FB683E
:104620001B681B6803F00103012B07D0FB681B68A4
:104630001A68FB681B6842F001021A60FB681B687D
:104640001A68FB681B6822F400621A60FB6821226A
:1046500083F83D20FB68402283F83E20FB6800225F
:104660001A64FB683A6A5A62FB68BA8C5A85FB681E
:104670005B8D9AB2FB681A85FB684D4ADA62F8884E
:104680003A8979897B690193BB6A00930346F8688C
:1046900000F038FB0346002B52D0012381E07A69F9
:1046A000B96AF86800F082FD0346002B0DD0FB6864
:1046B0001B6C042B07D1FB681B681A68FB681B681E
:1046C00042F400721A6001236BE0FB685B6A1A789F
:1046D000FB681B681A61FB685B6A5A1CFB685A62BC
:1046E000FB681B8D013B9AB2FB681A85FB685B8DEA
:1046F0009BB2013B9AB2FB685A85FB681B685B69F9
:1047000003F00403042B1BD1FB681B8D002B17D077
:10471000FB685B6A1A78FB681B681A61FB685B6A56
:104720005A1CFB685A62FB681B8D013B9AB2FB68FE
:104730001A85FB685B8D9BB2013B9AB2FB685A8578
:10474000FB681B8D002BAAD17A69B96AF86800F062
:104750006EFD0346002B0DD0FB681B6C042B07D1AC
:10476000FB681B681A68FB681B6842F400721A60D9
:10477000012316E0FB681B681A68FB681B6842F49B
:1047800000721A60FB68202283F83D20FB6800223B
:1047900083F83E20FB68002283F83C20002300E0E1
:1047A000022318461837BD4680BD00BF0200100026
:1047B0000000FFFF80B58CB002AFF86008461146DC
:1047C0001A4603467B810B463B811346FB80FFF76D
:1047D00001FA7862FB6893F83D30DBB2202B40F0A1
:1047E00008827B6A0093192301227B49F86800F054
:1047F00007FC0346002B01D00223FBE1FB6893F882
:104800003C30012B01D10223F4E1FB68012283F843
:104810003C20FB681B681B6803F00103012B07D0D9
:10482000FB681B681A68FB681B6842F001021A608B
:10483000FB681B681A68FB681B6822F400621A6038
:10484000FB68222283F83D20FB68402283F83E204B
:10485000FB6800221A64FB683A6B5A62FB68BA8EE6
:104860005A85FB685B8D9AB2FB681A85FB685B4AC8
:10487000DA62F8883A8979897B6A0193BB6B009385
:104880000346F86800F0D4FA0346002B01D0012358
:10489000B0E1FB681B8D002B13D100233B62FB684A
:1048A0001B685B693B62FB681B689B693B623B6AF8
:1048B000FB681B681A68FB681B6842F400721A6088
:1048C00084E1FB681B8D012B1BD1FB681B681A68F8
:1048D000FB681B6822F480621A600023FB61FB689E
:1048E0001B685B69FB61FB681B689B69FB61FB697B
:1048F000FB681B681A68FB681B6842F400721A6048
:1049000064E1FB681B8D022B1BD1FB681B681A68D6
:10491000FB681B6822F480621A60FB681B681A68D7
:10492000FB681B6842F400621A600023BB61FB68ED
:104930001B685B69BB61FB681B689B69BB61BB69EA
:1049400044E100237B61FB681B685B697B61FB685A
:104950001B689B697B617B6938E1FB681B8D032BBE
:1049600000F2F180FB681B8D012B23D17A6AB96BB1
:10497000F86800F09DFC0346002B01D0012339E1CB
:10498000FB681B681A69FB685B6AD2B21A70FB6825
:104990005B6A5A1CFB685A62FB681B8D013B9AB22A
:1049A000FB681A85FB685B8D9BB2013B9AB2FB6882
:1049B0005A850BE1FB681B8D022B4ED17B6A00935D
:1049C000BB6B00220649F86800F01AFB0346002B77
:1049D00008D001230EE100BF020010000000FFFF1D
:1049E00004000100FB681B681A68FB681B6842F43E
:1049F00000721A60FB681B681A69FB685B6AD2B2B6
:104A00001A70FB685B6A5A1CFB685A62FB681B8D54
:104A1000013B9AB2FB681A85FB685B8D9BB2013B38
:104A20009AB2FB685A85FB681B681A69FB685B6A67
:104A3000D2B21A70FB685B6A5A1CFB685A62FB6848
:104A40001B8D013B9AB2FB681A85FB685B8D9BB29C
:104A5000013B9AB2FB685A85B8E07B6A0093BB6B56
:104A600000226649F86800F0CBFA0346002B01D01B
:104A70000123BFE0FB681B681A68FB681B6822F40F
:104A800080621A60FB681B681A69FB685B6AD2B2B5
:104A90001A70FB685B6A5A1CFB685A62FB681B8DC4
:104AA000013B9AB2FB681A85FB685B8D9BB2013BA8
:104AB0009AB2FB685A857B6A0093BB6B00224F4910
:104AC000F86800F09DFA0346002B01D0012391E025
:104AD000FB681B681A68FB681B6842F400721A6066
:104AE000FB681B681A69FB685B6AD2B21A70FB68C4
:104AF0005B6A5A1CFB685A62FB681B8D013B9AB2C9
:104B0000FB681A85FB685B8D9BB2013B9AB2FB6820
:104B10005A85FB681B681A69FB685B6AD2B21A7017
:104B2000FB685B6A5A1CFB685A62FB681B8D013B81
:104B30009AB2FB681A85FB685B8D9BB2013B9AB207
:104B4000FB685A8542E07A6AB96BF86800F0B0FBFE
:104B50000346002B01D001234CE0FB681B681A6957
:104B6000FB685B6AD2B21A70FB685B6A5A1CFB680E
:104B70005A62FB681B8D013B9AB2FB681A85FB6881
:104B80005B8D9BB2013B9AB2FB685A85FB681B6840
:104B90005B6903F00403042B18D1FB681B681A69D6
:104BA000FB685B6AD2B21A70FB685B6A5A1CFB68CE
:104BB0005A62FB681B8D013B9AB2FB681A85FB6841
:104BC0005B8D9BB2013B9AB2FB685A85FB681B8DDB
:104BD000002B7FF4C2AEFB68202283F83D20FB68E7
:104BE000002283F83E20FB68002283F83C2000234B
:104BF00000E0022318462837BD4680BD04000100AE
:104C000080B588B002AFF8607A603B600B467B816C
:104C1000FB68DB6A7B617B69082B06D07B69012B13
:104C200003D07B6913F5803F08D1FB681B681A68C5
:104C3000FB681B6842F480721A600BE0FB681B6B18
:104C4000122B07D1FB681B681A68FB681B6842F4CB
:104C500080721A603B6800937B6800224FF001115C
:104C6000F86800F0CDF90346002B0DD0FB681B68F7
:104C70001B6803F48073B3F5807F03D1FB684FF4A6
:104C800000721A64032335E0FB681B69B3F5804F9B
:104C900008D17B89DBB21A46FB681B6802F0FE0272
:104CA0001A611BE07B89DB11DBB203F00603DBB288
:104CB00063F00F03DAB2FB681B681A613B687A681D
:104CC0000E49F86800F0F3F90346002B01D00123E8
:104CD00010E07B89DAB2FB681B681A613B687A686E
:104CE0000749F86800F0E3F90346002B01D00123DF
:104CF00000E0002318461837BD4680BD08000100BB
:104D00000200010080B588B002AFF8600846114685
:104D10001A4603467B810B463B811346FB80FB68AA
:104D20001B681A68FB681B6842F480721A607B6A11
:104D300000933B6A00224FF00111F86800F060F91F
:104D40000346002B0DD0FB681B681B6803F48073BF
:104D5000B3F5807F03D1FB684FF400721A6403231C
:104D60005FE07B89DBB21A46FB681B6802F0FE023B
:104D70001A617B6A3A6A2D49F86800F098F903468F
:104D8000002B01D001234CE000237B61FB681B68F2
:104D90005B697B61FB681B689B697B617B697A6AE5
:104DA000396AF86800F002FA0346002B0DD0FB6860
:104DB0001B6C042B07D1FB681B681A68FB681B6817
:104DC00042F400721A6001232BE0FB88012B05D10D
:104DD0003B89DAB2FB681B681A6121E03B891B0A38
:104DE0009BB2DAB2FB681B681A617A6A396AF868A2
:104DF00000F0DCF90346002B0DD0FB681B6C042B84
:104E000007D1FB681B681A68FB681B6842F40072D4
:104E10001A60012305E03B89DAB2FB681B681A615E
:104E2000002318461837BD4680BD00BF02000100B0
:104E300080B588B002AFF860084611461A460346AE
:104E40007B810B463B811346FB80FB681B681A681D
:104E5000FB681B6842F480621A60FB681B681A6872
:104E6000FB681B6842F480721A607B6A00933B6A9D
:104E700000224FF00111F86800F0C2F80346002B41
:104E80000DD0FB681B681B6803F48073B3F5807F4B
:104E900003D1FB684FF400721A640323AAE07B89F4
:104EA000DBB21A46FB681B6802F0FE021A617B6ADD
:104EB0003A6A5249F86800F0FAF80346002B01D02C
:104EC000012397E000237B61FB681B685B697B61C2
:104ED000FB681B689B697B617B697A6A396AF86841
:104EE00000F064F90346002B0DD0FB681B6C042B0B
:104EF00007D1FB681B681A68FB681B6842F40072E4
:104F00001A60012376E0FB88012B05D13B89DAB2D8
:104F1000FB681B681A6121E03B891B0A9BB2DAB26D
:104F2000FB681B681A617A6A396AF86800F03EF912
:104F30000346002B0DD0FB681B6C042B07D1FB68CC
:104F40001B681A68FB681B6842F400721A60012330
:104F500050E03B89DAB2FB681B681A617A6A396AE9
:104F6000F86800F023F90346002B0DD0FB681B6C9A
:104F7000042B07D1FB681B681A68FB681B6842F4A6
:104F800000721A60012335E0FB681B681A68FB6831
:104F90001B6842F480721A607B6A00933B6A0022AD
:104FA0004FF00111F86800F02BF80346002B0DD0EC
:104FB000FB681B681B6803F48073B3F5807F03D123
:104FC000FB684FF400721A64032313E07B89DBB2A1
:104FD00043F00103DAB2FB681B681A617B6A3A6A24
:104FE0000649F86800F063F80346002B01D001235E
:104FF00000E0002318461837BD4680BD02000100BE
:1050000080B584B000AFF860B9603B601346FB71B7
:1050100025E03B68B3F1FF3F21D0FEF7DBFD024600
:10502000BB69D31A3A689A4202D33B68002B16D167
:10503000FB6800221A63FB68202283F83D20FB688E
:10504000002283F83E20FB681B6C43F02002FB68C3
:105050001A64FB68002283F83C20012323E0BB682C
:105060001B0CDBB2012B0DD1FB681B685B69DA43BB
:10507000BB6813409BB2002B0CBF01230023DBB2A3
:105080001A460CE0FB681B689B69DA43BB68134057
:105090009BB2002B0CBF01230023DBB21A46FB7925
:1050A0009A42B6D0002318461037BD4680BD80B561
:1050B00084B000AFF860B9607A603B6051E0FB6893
:1050C0001B685B6903F48063B3F5806F23D1FB68D1
:1050D0001B681A68FB681B6842F400721A60FB6860
:1050E0001B686FF480625A61FB6800221A63FB68D8
:1050F000202283F83D20FB68002283F83E20FB68D5
:105100001B6C43F00402FB681A64FB68002283F8FE
:105110003C20012346E07B68B3F1FF3F21D0FEF73E
:1051200059FD02463B68D31A7A689A4202D37B68DB
:10513000002B16D1FB6800221A63FB68202283F83B
:105140003D20FB68002283F83E20FB681B6C43F087
:105150002002FB681A64FB68002283F83C200123CC
:1051600020E0BB681B0CDBB2012B0CD1FB681B6879
:105170005B69DA43BB6813409BB2002B14BF012369
:105180000023DBB20BE0FB681B689B69DA43BB685A
:1051900013409BB2002B14BF01230023DBB2002B72
:1051A0008DD1002318461037BD4680BD80B584B030
:1051B00000AFF860B9607A602DE0F86800F0CEF8D2
:1051C0000346002B01D001232DE0BB68B3F1FF3F64
:1051D00021D0FEF7FFFC02467B68D31ABA689A42D8
:1051E00002D3BB68002B16D1FB6800221A63FB6850
:1051F000202283F83D20FB68002283F83E20FB68D4
:105200001B6C43F02002FB681A64FB68002283F8E1
:105210003C20012307E0FB681B685B6903F0800307
:10522000802BCAD1002318461037BD4680BD80B5FB
:1052300084B000AFF860B9607A602DE0F86800F0E3
:105240008DF80346002B01D001232DE0BB68B3F19C
:10525000FF3F21D0FEF7BEFC02467B68D31ABA6836
:105260009A4202D3BB68002B16D1FB6800221A6356
:10527000FB68202283F83D20FB68002283F83E2053
:10528000FB681B6C43F02002FB681A64FB68002279
:1052900083F83C20012307E0FB681B685B6903F08F
:1052A0000403042BCAD1002318461037BD4680BD25
:1052B00080B584B000AFF860B9607A6042E0FB6806
:1052C0001B685B6903F01003102B19D1FB681B6886
:1052D0006FF010025A61FB6800221A63FB682022FB
:1052E00083F83D20FB68002283F83E20FB681A6C9F
:1052F000FB681A64FB68002283F83C20012329E044
:10530000FEF768FC02467B68D31ABA689A4202D359
:10531000BB68002B16D1FB6800221A63FB682022B1
:1053200083F83D20FB68002283F83E20FB681B6C5D
:1053300043F02002FB681A64FB68002283F83C20DB
:10534000012307E0FB681B685B6903F04003402B07
:10535000B5D1002318461037BD4680BD80B483B058
:1053600000AF78607B681B685B6903F48063B3F50A
:10537000806F1BD17B681B686FF480625A617B6809
:1053800000221A637B68202283F83D207B6800227C
:1053900083F83E207B681B6C43F004027B681A6430
:1053A0007B68002283F83C20012300E0002318469C
:1053B0000C37BD465DF8047B7047000080B586B0B1
:1053C00000AF78607B68002B01D1012367E27B6826
:1053D0001B6803F00103002B75D0884B9B6803F01A
:1053E0000C03042B0CD0854B9B6803F00C03082B9B
:1053F00012D1824B5B6803F48003B3F5800F0BD1AD
:105400007E4B1B6803F40033002B5BD07B685B682A
:10541000002B57D1012342E27B685B68B3F5803FE4
:1054200006D1764B1B68754A43F4803313601DE048
:105430007B685B68B3F5A02F0CD1704B1B686F4A7B
:1054400043F4802313606D4B1B686C4A43F4803334
:1054500013600BE0694B1B68684A23F480331360C8
:10546000664B1B68654A23F4802313607B685B6886
:10547000002B13D0FEF7AEFB386108E0FEF7AAFB65
:1054800002463B69D31A642B01D9032307E25B4B25
:105490001B6803F40033002BF0D014E0FEF79AFBF6
:1054A000386108E0FEF796FB02463B69D31A642B8D
:1054B00001D90323F3E1514B1B6803F40033002BA4
:1054C000F0D100E000BF7B681B6803F00203002BF3
:1054D00063D04A4B9B6803F00C03002B0BD0474B67
:1054E0009B6803F00C03082B1CD1444B5B6803F44E
:1054F0008003002B16D1414B1B6803F00203002BE5
:1055000005D07B68DB68012B01D00123C7E13B4B51
:105510001B6823F0F8027B681B69DB0037491343E3
:105520000B603AE07B68DB68002B20D0344B012213
:105530001A60FEF74FFB386108E0FEF74BFB0246AE
:105540003B69D31A022B01D90323A8E12B4B1B681B
:1055500003F00203002BF0D0284B1B6823F0F80265
:105560007B681B69DB00254913430B6015E0244B66
:1055700000221A60FEF72EFB386108E0FEF72AFBD6
:1055800002463B69D31A022B01D9032387E11B4B47
:105590001B6803F00203002BF0D17B681B6803F04B
:1055A0000803002B36D07B685B69002B16D0154BA7
:1055B00001221A60FEF70EFB386108E0FEF70AFBD5
:1055C00002463B69D31A022B01D9032367E10B4B37
:1055D0005B6F03F00203002BF0D01BE0094B0022AD
:1055E0001A60FEF7F7FA38610EE0FEF7F3FA0246AA
:1055F0003B69D31A022B07D9032350E1003802403C
:1056000000004742800E4742884B5B6F03F0020365
:10561000002BEAD17B681B6803F00403002B00F029
:1056200097800023FB75814B1B6C03F08053002B8C
:105630000FD10023BB607D4B1B6C7C4A43F0805331
:1056400013647A4B1B6C03F08053BB60BB6801236F
:10565000FB75774B1B6803F48073002B18D1744BD8
:105660001B68734A43F480731360FEF7B3FA386122
:1056700008E0FEF7AFFA02463B69D31A022B01D9C4
:1056800003230CE16A4B1B6803F48073002BF0D0FA
:105690007B689B68012B06D1644B1B6F634A43F008
:1056A000010313671CE07B689B68052B0CD15F4BE3
:1056B0001B6F5E4A43F0040313675C4B1B6F5B4A2E
:1056C00043F0010313670BE0584B1B6F574A23F05D
:1056D00001031367554B1B6F544A23F004031367F0
:1056E0007B689B68002B15D0FEF774FA38610AE0DE
:1056F000FEF770FA02463B69D31A41F288329342B0
:1057000001D90323CBE0494B1B6F03F00203002BAD
:10571000EED014E0FEF75EFA38610AE0FEF75AFABE
:1057200002463B69D31A41F28832934201D90323DE
:10573000B5E03E4B1B6F03F00203002BEED1FB7D67
:10574000012B05D1394B1B6C384A23F0805313646D
:105750007B689B69002B00F0A180344B9B6803F0B1
:105760000C03082B5CD07B689B69022B41D1314B29
:1057700000221A60FEF72EFA386108E0FEF72AFAD6
:1057800002463B69D31A022B01D9032387E0274B3A
:105790001B6803F00073002BF0D17B68DA697B682B
:1057A0001B6A1A437B685B6A9B011A437B689B6A8E
:1057B0005B08013B1B041A437B68DB6A1B061B4921
:1057C00013434B601B4B01221A60FEF703FA38614A
:1057D00008E0FEF7FFF902463B69D31A022B01D914
:1057E00003235CE0114B1B6803F00073002BF0D027
:1057F00054E0104B00221A60FEF7ECF9386108E023
:10580000FEF7E8F902463B69D31A022B01D90323BC
:1058100045E0064B1B6803F00073002BF0D13DE020
:105820007B689B69012B07D1012338E000380240D7
:1058300000700040600047421B4B5B68FB607B6868
:105840009B69012B28D0FB6803F480027B68DB692D
:105850009A4221D1FB6803F03F027B681B6A9A429F
:105860001AD1FA6847F6C07313407A68526A9201F7
:10587000934211D1FB6803F440327B689B6A5B085A
:10588000013B1B049A4207D1FB6803F070627B68FE
:10589000DB6A1B069A4201D0012300E00023184670
:1058A0001837BD4680BD00BF0038024080B584B0C7
:1058B00000AF786039607B68002B01D10123CCE018
:1058C000684B1B6803F007033A689A420CD9654B92
:1058D0003A68D2B21A70634B1B6803F007033A6848
:1058E0009A4201D00123B8E07B681B6803F00203F1
:1058F000002B20D07B681B6803F00403002B05D02D
:10590000594B9B68584A43F4E05393607B681B688B
:1059100003F00803002B05D0534B9B68524A43F415
:1059200060439360504B9B6823F0F0027B689B6858
:105930004D4913438B607B681B6803F00103002B08
:1059400044D07B685B68012B07D1474B1B6803F48D
:105950000033002B19D101237FE07B685B68022BA9
:1059600003D07B685B68032B07D13F4B1B6803F0B8
:105970000073002B09D101236FE03B4B1B6803F040
:105980000203002B01D1012367E0374B9B6823F012
:1059900003027B685B68344913438B60FEF71AF996
:1059A000F8600AE0FEF716F90246FB68D31A41F2E6
:1059B0008832934201D903234FE02B4B9B6803F0BD
:1059C0000C027B685B689B009A42EBD1254B1B68FD
:1059D00003F007033A689A420CD2224B3A68D2B2DB
:1059E0001A70204B1B6803F007033A689A4201D0F3
:1059F000012332E07B681B6803F00403002B08D00E
:105A0000194B9B6823F4E0527B68DB68164913430B
:105A10008B607B681B6803F00803002B09D0124BD6
:105A20009B6823F460427B681B69DB000E491343CB
:105A30008B6000F021F802460B4B9B681B0903F0BA
:105A40000F030A49CB5C22FA03F3094A1360094B9E
:105A50001B681846FEF77AF8002318461037BD4633
:105A600080BD00BF003C02400038024020AE00086C
:105A700004000020080000202DE9B04F90B000AFD6
:105A800000237B630023FB6300233B630023BB6392
:105A9000594B9B6803F00C03082B0DD0082B00F228
:105AA000A180002B02D0042B03D09BE0534BBB639F
:105AB0009BE0534BBB6398E04F4B5B6803F03F03A5
:105AC0007B634D4B5B6803F48003002B28D04A4B6B
:105AD0005B689B0900223B627A623B6AC3F3080061
